:020000040000FA
:100000000C945F000C9487000C9487000C9487007C
:100010000C9487000C9487000C9487000C94440681
:100020000C9487000C9487000C9487000C94400774
:100030000C9487000C9487000C9487000C94870024
:100040000C94F6060C9487000C94C4060C949E063F
:100050000C9487000C9487000C9487000C94870004
:100060000C9487000C9487000000000024002700F7
:100070002A0000000000250028002B0004040404CE
:100080000404040402020202020203030303030342
:10009000010204081020408001020408102001021F
:1000A00004081020000000080002010000030407FB
:1000B000000000000000000002000B086C0A112480
:1000C0001FBECFEFD8E0DEBFCDBF11E0A0E0B1E0B2
:1000D000E8EFF5E102C005900D92A236B107D9F71D
:1000E00024E0A2E6B1E001C01D92A630B207E1F71C
:1000F00010E0CEE5D0E004C02197FE010E94E90A9D
:10010000CD35D107C9F70E94C8080C94EF0A0C94AA
:100110000000FC01738762879B012B563F4F31879C
:100120002087FB0185E5E217F30711F08193FBCFF0
:100130000895AF92BF92CF92DF92EF92FF920F930A
:100140001F93CF93DF936C017B018B01040F151F6D
:10015000EB015E01AE18BF08C017D10759F06991D5
:10016000D601ED91FC910190F081E02DC601099539
:10017000892B79F7C501DF91CF911F910F91FF90E6
:10018000EF90DF90CF90BF90AF900895FC01538D1A
:10019000448D252F30E0842F90E0821B930B541761
:1001A00010F0CF96089501970895FC01918D828DEE
:1001B000981761F0A28DAE0FBF2FB11D5D968C9187
:1001C000928D9F5F9F73928F90E008958FEF9FEFC6
:1001D0000895FC01918D828D981731F0828DE80F82
:1001E000F11D858D90E008958FEF9FEF0895FC013C
:1001F000918D228D892F90E0805C9F4F821B910909
:100200008F739927089586E891E00E94F70021E016
:10021000892B09F420E0822F089580E090E0892B5B
:1002200029F00E94030181110C9400000895FC0143
:10023000A48DA80FB92FB11DA35ABF4F2C91848D47
:1002400090E001968F739927848FA689B7892C93A4
:10025000A089B1898C91837080648C93938D848DF7
:10026000981306C00288F389E02D80818F7D8083FA
:100270000895EF92FF920F931F93CF93DF93EC01BA
:1002800081E0888F9B8D8C8D98131AC0E889F9893D
:10029000808185FF15C09FB7F894EE89FF89608340
:1002A000E889F98980818370806480839FBF81E0C1
:1002B00090E0DF91CF911F910F91FF90EF90089503
:1002C000F62E0B8D10E00F5F1F4F0F731127E02EDE
:1002D0008C8D8E110CC00FB607FCFACFE889F98916
:1002E000808185FFF5CFCE010E941701F1CFEB8D04
:1002F000EC0FFD2FF11DE35AFF4FF0829FB7F894EA
:100300000B8FEA89FB8980818062CFCFCF93DF9307
:10031000EC01888D8823B9F0AA89BB89E889F9891D
:100320008C9185FD03C0808186FD0DC00FB607FC52
:10033000F7CF8C9185FFF2CF808185FFEDCFCE0185
:100340000E941701E9CFDF91CF91089590E0FC0161
:10035000EC55FF4F2491FC01E057FF4F3491FC0115
:10036000E458FF4FE491EE23C9F0222339F0233003
:1003700001F1A8F4213019F1223029F1F0E0EE0F5B
:10038000FF1FEE58FF4FA591B4918FB7F894EC91F1
:10039000611126C030953E233C938FBF08952730CE
:1003A000A9F02830C9F0243049F7809180008F7D72
:1003B00003C0809180008F7780938000DFCF84B569
:1003C0008F7784BDDBCF84B58F7DFBCF8091B0006C
:1003D0008F778093B000D2CF8091B0008F7DF9CF1E
:1003E0003E2BDACF9091000189130BC0E8EBF0E0CF
:1003F000E4919FEF90930001E13049F028F0E23062
:1004000061F060E00C94A60110926E00FACF90911A
:100410006F009D7F90936F00F4CF909170009D7F4F
:100420009093700091E09093B0009091B100987F0C
:1004300094609093B1001092B300E3CFCF93DF9319
:1004400090E0FC01E057FF4F249184589F4FFC013E
:1004500084918823C9F090E0880F991FFC01E85926
:10046000FF4FA591B491FC01EE58FF4FC591D49177
:1004700061110DC09FB7F8948C91209582238C93C5
:100480008881282328839FBFDF91CF910895623010
:1004900051F49FB7F8943C91822F809583238C93DD
:1004A000E8812E2BEFCF8FB7F894EC912E2B2C9365
:1004B0008FBFEACF3FB7F89480917201909173019A
:1004C000A0917401B091750126B5A89B05C02F3F7E
:1004D00019F00196A11DB11D3FBFBA2FA92F982F6A
:1004E0008827BC01CD01620F711D811D911D42E065
:1004F000660F771F881F991F4A95D1F708950F93AC
:100500001F93FC0160817181828193814FB7F894C0
:1005100000916E0110916F01209170013091710175
:100520004FBF601B710B820B930B97FF03C060E002
:1005300070E0CB011F910F9108950F931F93FC0161
:100540002FB7F89480916E0190916F01A091700186
:10055000B09171012FBF8C019D01040F151F261F43
:10056000371FC901B80160837183828393831F9110
:100570000F9108950F931F93CF93DF93EC018B019D
:1005800085E091E0998388831F821E82CE010E94BC
:10059000FC0787E191E09983888340E050E0BA014D
:1005A000CE0144960E949D02809181018F5F8093CD
:1005B00081011B861A86198618861F821E82EA818F
:1005C000FB8180918201909183019B838A83D093E8
:1005D0008301C0938201E817F90759F0F093850170
:1005E000E0938401228133818217930761F4D383DE
:1005F000C28382E08C83B801CE01DF91CF911F913D
:100600000F910C948900F901EDCFFC01858183FBEA
:10061000882780F90895FC01858183FF03C08581C7
:10062000877F85830895FC018581843018F085815A
:10063000886085830895CF93DF93EC018D8183FDDE
:100640001CC08D8184FF19C0809129028F5F809327
:10065000290285E08D83E881F9810280F381E02D14
:10066000CE01099584E08D83809129028150809389
:10067000290281E0DF91CF91089580E0FBCFCF93F5
:10068000DF93FC012581223050F0EC010190F081D4
:10069000E02D0190F081E02D099584E08D83DF91BC
:1006A000CF910895FC01A0918401B0918501A81714
:1006B000B90759F4828193819093850180938401D5
:1006C00015820895DC01892BD9F312968D919C91A6
:1006D00013978E179F07B1F78281938113969C938E
:1006E0008E931297EDCFCF93DF93EC0185E091E0ED
:1006F00099838883CE010E94520380918201909158
:1007000083018C179D0731F48A819B81909383012B
:10071000809382018C81843011F0823089F4809141
:100720002E0290912F022C853D85821B930B909376
:100730002F0280932E02809181018150809381014C
:10074000DF91CF9108952F923F924F925F926F92D7
:100750007F928F929F92AF92BF92CF92DF92EF9251
:10076000FF920F931F93CF93DF93EB012DB63EB60D
:1007700028823982EC01288039804FB6F8943EBE39
:100780002DBE4FBEDF91CF911F910F91FF90EF9043
:10079000DF90CF90BF90AF909F908F907F906F90A1
:1007A0005F904F903F902F900895CF93DF93EC018F
:1007B0008A819B81BE01685F7F4F009709F42AC040
:1007C000FC0125812C72243029F590932602809318
:1007D0002502909328028093270208960E94A30383
:1007E0000FB6F89486B515B2909172010FBE10FE47
:1007F00003C08F3F09F0915011240024990F990FE5
:10080000880F001C880F001C90299F878E87DF911E
:10081000CF910895109228021092270283E292E06D
:10082000DDCF20912902211116C0FC0122893389D4
:100830002617370714F4738B628BFC0120893189EA
:10084000A90155954795641B750B620F731F718B3A
:10085000608B0C94D5030895CF93DF93809127028A
:1008600090912802009709F42FC0FC01248535855A
:100870002115310509F10FB6F89466B515B27091DE
:1008800072010FBE10FE03C06F3F09F071501124BA
:100890000024770F770F660F001C660F001C70296D
:1008A00046855785641B750B621773070CF487C068
:1008B000DF91CF910C9411042091290221117FC066
:1008C000DF91CF910C94D50380912902811177C0DB
:1008D000C0918401D09185012091820130918301E2
:1008E0002C173D0759F0E881F9810680F781E02D4A
:1008F000CE0109950A80DB81C02DEECF80912502C3
:1009000090912602892B09F047C0209709F457C01F
:100910000FB6F89486B515B2909172010FBE10FE15
:1009200003C08F3F09F0915011240024990F990FB3
:10093000880F001C880F001C90294E855F85841B42
:10094000950B40912C0250912D02452B39F040918E
:100950002E0250912F02841795078CF130932602B6
:100960002093250220913202309133022817390753
:1009700024F490933302809332022091300230911C
:100980003102A90155954795841B950B820F931F42
:100990009093310280933002C0912502D0912602BB
:1009A000E881F9810680F781E02DCE0109958A81E1
:1009B0009B819093260280932502892B69F7DF9112
:1009C000CF910895CF92DF92EF92FF92CF93DF9372
:1009D000CDB7DEB728970FB6F894DEBF0FBECDBFF8
:1009E0006B017C0140E050E0BA01CE0101960E940B
:1009F0009D02B701A601CE0101960E949D02CE0183
:100A000001960E947F02672B682B692B19F00E94C8
:100A10002C04F5CF28960FB6F894DEBF0FBECDBFDD
:100A2000DF91CF91FF90EF90DF90CF900895DC01A0
:100A300015962C91159722FF29C015962C91287296
:100A400059F4909328028093270263E272E008969B
:100A50000E94A30381E008950FB6F89426B515B25D
:100A6000309172010FBE10FE03C02F3F09F03150CC
:100A700011240024330F330F220F001C220F001CFF
:100A80003029FC013787268780E0089515962C9140
:100A9000159721FFF9CFED91FC910480F581E02DB0
:100AA0000995F2CF0895DC011696ED91FC913097EF
:100AB00009F009940895DC011696ED91FC913097A8
:100AC00009F009940895CF93C82F60E00E941E0298
:100AD000C064C0937C0080917A00806480937A0027
:100AE00080917A0086FDFCCF80917800909179000A
:100AF000CF91089590E080E00E9463058A3F9105C0
:100B00009CF090E080E00E946305843F91406CF48B
:100B100086E696E6AEE0B1E48093760190937701A5
:100B2000A0937801B0937901089590E080E00E944D
:100B300063058E3E92402CF480E090E0A0E0B1E4AA
:100B4000EBCF8DEC9CECACEEB0E4E6CF0895CF9308
:100B5000DF93FC0120853185232B09F491C0EC0142
:100B6000858181FF5AC0F89463E272E0CB010E9454
:100B7000A3038D8182FF3DC0198A188A1B8A1A8AB5
:100B800085E08D838D8183FD2CC0E881F981068409
:100B9000F785E02DCE0109958C859D85009709F19B
:100BA0000FB6F89466B515B2709172010FBE10FEC3
:100BB00003C06F3F09F0715011240024770F770FA5
:100BC000660F001C660F001C70292E853F85621B76
:100BD000730B681779070CF4D5CFCE010E9411046E
:100BE000D1CF809129028111CDCFCE010E94D503B2
:100BF000C9CF8091230290912402EDB7FEB7A8855A
:100C0000B9859D01215031093987288720812C938E
:100C100031978E179F0799F77894CE010E943F0372
:100C200020912A0230912B023D872C8780912E0241
:100C300090912F02820F931F90932F0280932E0288
:100C40000FB6F89486B515B2909172010FBE10FEE2
:100C500003C08F3F09F0915011240024990F990F80
:100C6000880F001C880F001C90299F878E8740E00A
:100C700050E0BA01CE014496DF91CF910C949D02D1
:100C8000DF91CF91089508951F920F920FB60F92A2
:100C900011242F933F934F935F936F937F938F9381
:100CA0009F93AF93BF93EF93FF9380917D019091BA
:100CB0007E01A0917F01B0918001892B8A2B8B2B23
:100CC000C1F190917C018091000089278093000000
:100CD00080917D0190917E01A0917F01B091800172
:100CE000181619061A061B069CF480917D01909136
:100CF0007E01A0917F01B09180010197A109B10906
:100D000080937D0190937E01A0937F01B093800139
:100D1000FF91EF91BF91AF919F918F917F916F91D3
:100D20005F914F913F912F910F900FBE0F901F90A9
:100D30001895809100010E94F201EACF1F920F9254
:100D40000FB60F9211242F933F934F935F936F939E
:100D50007F938F939F93AF93BF93EF93FF9386E817
:100D600091E00E941701FF91EF91BF91AF919F9188
:100D70008F917F916F915F914F913F912F910F9044
:100D80000FBE0F901F9018951F920F920FB60F92E3
:100D900011242F938F939F93EF93FF93E0919601EC
:100DA000F09197018081E0919C01F0919D0182FD7D
:100DB0001BC0908180919F018F5F8F732091A00154
:100DC000821741F0E0919F01F0E0EA57FE4F958FC6
:100DD00080939F01FF91EF919F918F912F910F90A1
:100DE0000FBE0F901F9018958081F4CF1F920F9225
:100DF0000FB60F9211242F933F938F939F93AF932E
:100E0000BF9380916E0190916F01A0917001B0919C
:100E1000710130916D0123E0230F2D3758F50196B4
:100E2000A11DB11D20936D0180936E0190936F0100
:100E3000A0937001B0937101809172019091730140
:100E4000A0917401B09175010196A11DB11D80930F
:100E5000720190937301A0937401B0937501BF91D7
:100E6000AF919F918F913F912F910F900FBE0F9057
:100E70001F90189526E8230F0296A11DB11DD2CF11
:100E80001F920F920FB60F9211242F933F934F93FF
:100E90005F936F937F938F939F93AF93BF93CF9302
:100EA000DF93EF93FF9380916C01C0919E02D0E09D
:100EB00087FF24C0109285001092840080916C01FD
:100EC0008F5F80936C0180916C01082E000C990B50
:100ED0008C179D0724F480916C018C30C4F18091B3
:100EE000840090918500049680349C4908F47AC06F
:100EF0008091840090918500049676C080916C0169
:100F0000082E000C990B8C179D07C4F6E0916C011C
:100F10008E2FEE0F990BFC01EE0FFF1FE80FF91F4C
:100F2000E658FD4F808186FFC9CFE0916C018E2F7E
:100F3000EE0F990BFC01EE0FFF1FE80FF91FE658AB
:100F4000FD4F808160E08F730E94A601B7CF209192
:100F5000840030918500E0916C018E2FEE0F990B8B
:100F6000FC01EE0FFF1FE80FF91FE658FD4F8181CE
:100F70009281820F931F9093890080938800E09163
:100F80006C018E2FEE0F990BFC01EE0FFF1FE80F87
:100F9000F91FE658FD4F808186FF11C0E0916C017A
:100FA0008E2FEE0F990BFC01EE0FFF1FE80FF91FBC
:100FB000E658FD4F808161E08F730E94A601FF918A
:100FC000EF91DF91CF91BF91AF919F918F917F91E1
:100FD0006F915F914F913F912F910F900FBE0F90A6
:100FE0001F90189580E49CE9909389008093880075
:100FF0008FEF80936C01E3CFFC018091840190918D
:10100000850193838283F0938501E093840181E0DD
:10101000848385830895CF9310928901109288016B
:1010200088EE93E0A0E0B0E080938A0190938B017A
:10103000A0938C01B0938D018BE291E09093870196
:101040008093860185EC90E09093930180939201C8
:1010500084EC90E0909395018093940180EC90E073
:10106000909397018093960181EC90E09093990181
:101070008093980182EC90E090939B0180939A0179
:1010800086EC90E090939D0180939C0110929F01CB
:101090001092A0011092A1011092A20180E991E0AA
:1010A00090932B0280932A0290932D0280932C021E
:1010B00010922F0210922E021092310210923002E2
:1010C00010923302109232021092260210922502E0
:1010D000109228021092270281E080932902109238
:1010E0003A0210923B0210923C0210923D02109282
:1010F0003E0210923F021092400210924102109262
:101100004202109243021092440210924502109241
:1011100046021092470210924802109249028091B2
:101120009E028C3088F591E0980F90939E028093F8
:101130009F0290E0FC01EE0FFF1FE80FF91FE65839
:10114000FD4F88EB9BE09283818368E373E08AEE36
:1011500093E00E94BA0281E591E09093EB038093C3
:10116000EA03C2E0C093EF0362EA72E08EEC93E020
:101170000E94BA028DE391E09093CF038093CE0357
:10118000C093D303CF9108958FEF80939F02DDCF5B
:10119000789484B5826084BD84B5816084BD85B552
:1011A000826085BD85B5816085BD80916E0081605E
:1011B00080936E0010928100809181008260809304
:1011C0008100809181008160809381008091800006
:1011D0008160809380008091B10084608093B10031
:1011E0008091B00081608093B00080917A0084602B
:1011F00080937A0080917A00826080937A00809157
:101200007A00816080937A0080917A008068809370
:101210007A001092C10062E082E00E941E0262E049
:1012200084E00E941E0280919F028C3008F051C021
:1012300061E083E00E941E0280919F02282F30E02F
:10124000F901EE0FFF1FE20FF31FE658FD4F9081EB
:10125000907C936090831092A0021092A1022CE0E7
:10126000622F0E94DD0A829FB001112430E020E04D
:10127000AB01420F531FFA01EE0FFF1FE40FF51FE2
:10128000E658FD4F908196FD16C02F5F3F4F2C30E2
:10129000310571F781110FC01092800082E08093B8
:1012A00081001092850010928400B19A80916F00A5
:1012B000826080936F00E0919F028E2F90E0FC018E
:1012C000EE0FFF1FE80FF91FE658FD4F8081806485
:1012D000808380912C0290912D0290932F02809315
:1012E0002E02809184019091850190932602809333
:1012F00025028091250290912602009771F0DC0171
:10130000ED91FC910480F581E02D0995E091250295
:10131000F091260282819381E8CF10922902E09118
:101320009601F091970182E08083E0919201F09123
:1013300093011082E0919401F09195018FEC8083EC
:1013400010929E01E0919A01F0919B0186E08083CA
:10135000E0919801F0919901808180618083E09112
:101360009801F0919901808188608083E0919801D3
:10137000F0919901808180688083E0919801F091DB
:10138000990180818F7D808361E086E00E941E024A
:1013900061E086E00E94A60161E087E00E941E02F3
:1013A00061E087E00E94A60110927B0110927A0111
:1013B00080E090E0A0E2B1E4809376019093770121
:1013C000A0937801B09379012091A00288E890E081
:1013D000821B910927FD9395EC01CC0FDD1FCC0FEB
:1013E000DD1F6E010D2E000CEE08FF088091A1029A
:1013F00028E532E0281B310987FD3395220F331F82
:10140000220F331F032E000C440B550B2C193D09E2
:101410004E095F09A5E2B0E00E94C30A24EB30E068
:1014200040E050E00E94A40AC20ED31EE41EF51E46
:10143000E0919F02EC30B0F4CE01CC15DD050CF448
:10144000C6010297880F991F4FB7F8942E2F30E0EE
:10145000F901EE0FFF1FE20FF31FE658FD4F9283D5
:1014600081834FBF0E945A024B015C0186E7C82E60
:1014700086E1D82EE12CF12C0E942C040E945A0205
:10148000681979098A099B09683E734081059105AD
:1014900098F3B1E0CB1AD108E108F10828EE820EEA
:1014A00023E0921EA11CB11CC114D104E104F1047B
:1014B00029F7C0E0D0E068EE73E080E090E00E94A1
:1014C000E2040E942C042097B1F30E9403018823B8
:1014D00091F30E940000EFCFCF93DF93C7E1D1E0FB
:1014E000D093CF03C093CE038EEC93E00E9473039E
:1014F000D093EB03C093EA038AEE93E0DF91CF91A0
:101500000C947303A1E21A2EAA1BBB1BFD010DC094
:10151000AA1FBB1FEE1FFF1FA217B307E407F507A3
:1015200020F0A21BB30BE40BF50B661F771F881F7F
:10153000991F1A9469F760957095809590959B0115
:10154000AC01BD01CF010895052E97FB1EF4009458
:101550000E94BB0A57FD07D00E94820A07FC03D0F5
:101560004EF40C94BB0A50954095309521953F4F11
:101570004F4F5F4F089590958095709561957F4F7F
:101580008F4F9F4F08950E94CE0AA59F900DB49F44
:10159000900DA49F800D911D11240895A29FB0016C
:1015A000B39FC001A39F700D811D1124911DB29F97
:1015B000700D811D1124911D0895991B79E004C0BF
:1015C000991F961708F0961B881F7A95C9F7809582
:1015D0000895EE0FFF1F0590F491E02D099410E09F
:1015E000CEE5D0E004C0FE010E94E90A2196CF3585
:1015F000D107C9F7F894FFCFFF0000000052055B48
:10160000053F031B03130305030B030000000052F7
:10161000055205A7051705130305030B0353050022
:1016200000000039019900C6008601F700D500E9E5
:101630000000000000A6055205A7051705130305C5
:10164000030B037A0500000000A6055205A7051745
:0A16500005130305030B0343060016
:107E0000112484B714BE81FFF0D085E080938100F7
:107E100082E08093C00088E18093C10086E0809377
:107E2000C20080E18093C4008EE0C9D0259A86E02C
:107E300020E33CEF91E0309385002093840096BBD3
:107E4000B09BFECF1D9AA8958150A9F7CC24DD24C4
:107E500088248394B5E0AB2EA1E19A2EF3E0BF2EE7
:107E6000A2D0813461F49FD0082FAFD0023811F036
:107E7000013811F484E001C083E08DD089C08234E0
:107E800011F484E103C0853419F485E0A6D080C0E4
:107E9000853579F488D0E82EFF2485D0082F10E0AE
:107EA000102F00270E291F29000F111F8ED06801E7
:107EB0006FC0863521F484E090D080E0DECF843638
:107EC00009F040C070D06FD0082F6DD080E0C81688
:107ED00080E7D80618F4F601B7BEE895C0E0D1E017
:107EE00062D089930C17E1F7F0E0CF16F0E7DF06D8
:107EF00018F0F601B7BEE89568D007B600FCFDCFD4
:107F0000A601A0E0B1E02C9130E011968C91119780
:107F100090E0982F8827822B932B1296FA010C0160
:107F200087BEE89511244E5F5F4FF1E0A038BF0790
:107F300051F7F601A7BEE89507B600FCFDCF97BE46
:107F4000E89526C08437B1F42ED02DD0F82E2BD052
:107F50003CD0F601EF2C8F010F5F1F4F84911BD097
:107F6000EA94F801C1F70894C11CD11CFA94CF0C13
:107F7000D11C0EC0853739F428D08EE10CD085E9AC
:107F80000AD08FE07ACF813511F488E018D01DD067
:107F900080E101D065CF982F8091C00085FFFCCF94
:107FA0009093C60008958091C00087FFFCCF809118
:107FB000C00084FD01C0A8958091C6000895E0E648
:107FC000F0E098E1908380830895EDDF803219F02E
:107FD00088E0F5DFFFCF84E1DECF1F93182FE3DFCA
:107FE0001150E9F7F2DF1F91089580E0E8DFEE27F6
:047FF000FF270994CA
:027FFE00040479
:00000001FF
