:020000040000FA
:100000000C94A5000C94CD000C94CD000C94CD0064
:100010000C94CD000C94CD000C94CD000C94FF0BEF
:100020000C94CD000C94CD000C94CD000C94FD0CE0
:100030000C94CD000C94CD000C94CD000C94CD000C
:100040000C94B30C0C94CD000C94810C0C945B0CB0
:100050000C94CD000C94CD000C94CD000C94CD00EC
:100060000C94CD000C94CD0007634236B79BD8A703
:100070001A39685618AEBAAB558C1D3CB7CC5763CD
:10008000BD6DEDFD753EF6177231BF000000803F7B
:1000900008000000BE922449123EABAAAA2ABECD97
:1000A000CCCC4C3E00000080BEABAAAAAA3E000009
:1000B0000000BF000000803F000000000008417801
:1000C000D3BB4387D1133D190E3CC3BD4282AD2B38
:1000D0003E68EC8276BED98FE1A93E4C80EFFFBE30
:1000E00001C4FF7F3F00000000000000000023006B
:1000F0002600290000000000240027002A0000003C
:1001000000080002010000030407000000000000D6
:1001100000000102040810204080010204081020A1
:1001200001020408102000000000250028002B0018
:10013000040404040404040402020202020203038D
:10014000030303030200C80DBC0F11241FBECFEF31
:10015000D8E0DEBFCDBF11E0A0E0B1E0E4E5F8E219
:1001600002C005900D92AE39B107D9F726E0AEE98D
:10017000B1E001C01D92AB32B207E1F710E0C4EA72
:10018000D0E004C02197FE010E941714C33AD107A2
:10019000C9F70E94900E0C941D140C940000CF928D
:1001A000DF92EF92FF92DC01A03282E0B807D4F533
:1001B000A53BB10514F0A4EBB0E04091AF0228E8F4
:1001C00030E0241B310947FD3395220F331F220FE6
:1001D000331F6901330FEE08FF084091B00228E594
:1001E00032E0241B310947FD3395220F331F220FC4
:1001F000331F032E000C440B550B2C193D094E09DF
:100200005F09B7FF02C0B0E0A0E00E94141024EB29
:1002100030E040E050E00E94EA0FC20ED31EE41E20
:10022000F51ED601E091AE02EC3080F52091AF02D0
:1002300088E890E0821B910927FD9395880F991F0C
:10024000880F991FA817B90784F02091B00288E59C
:1002500092E0821B910927FD9395880F991F880FC3
:10026000991FA817B9070CF4CD010297880F991FA1
:100270004FB7F8942E2F30E0F901EE0FFF1FE20F79
:10028000F31FE757FD4F928381834FBFFF90EF909D
:10029000DF90CF900895FC01738762879B012B56F6
:1002A0003F4F31872087FB0185E5E217F30711F007
:1002B0008193FBCF0895FC01538D448D252F30E0B1
:1002C000842F90E0821B930B541710F0CF96089563
:1002D00001970895FC01918D828D981761F0A28D90
:1002E000AE0FBF2FB11D5D968C91928D9F5F9F7356
:1002F000928F90E008958FEF9FEF0895FC01918D0C
:10030000828D981731F0828DE80FF11D858D90E078
:1003100008958FEF9FEF0895FC01918D228D892F15
:1003200090E0805C9F4F821B91098F7399270895FD
:10033000FC01A48DA80FB92FB11DA35ABF4F2C915A
:10034000848D90E001968F739927848FA689B78951
:100350002C93A089B1898C91837080648C93938D48
:10036000848D981306C00288F389E02D80818F7DEB
:1003700080830895EF92FF920F931F93CF93DF93A3
:10038000EC0181E0888F9B8D8C8D98131AC0E889D1
:10039000F989808185FF15C09FB7F894EE89FF89A0
:1003A0006083E889F98980818370806480839FBF3E
:1003B00081E090E0DF91CF911F910F91FF90EF903E
:1003C0000895F62E0B8D10E00F5F1F4F0F7311274E
:1003D000E02E8C8D8E110CC00FB607FCFACFE88989
:1003E000F989808185FFF5CFCE010E949801F1CF78
:1003F000EB8DEC0FFD2FF11DE35AFF4FF0829FB7FD
:10040000F8940B8FEA89FB8980818062CFCFCF93EC
:10041000DF93EC01888D8823B9F0AA89BB89E8892C
:10042000F9898C9185FD03C0808186FD0DC00FB6D2
:1004300007FCF7CF8C9185FFF2CF808185FFEDCF50
:10044000CE010E949801E9CFDF91CF9108958BED05
:1004500091E00E948C0121E0892B09F420E0822F99
:10046000089580E090E0892B29F00E9427028111F5
:100470000C9400000895AF92BF92CF92DF92EF925A
:10048000FF920F931F93CF93DF936C017B018B013E
:10049000040F151FEB015E01AE18BF08C017D1078E
:1004A00059F06991D601ED91FC910190F081E02D18
:1004B000C6010995892B79F7C501DF91CF911F916D
:1004C0000F91FF90EF90DF90CF90BF90AF90089585
:1004D000833081F028F4813099F08230A9F00895BA
:1004E0008730A9F08830C9F08430B1F48091800061
:1004F0008F7D03C0809180008F7780938000089566
:1005000084B58F7784BD089584B58F7DFBCF8091AE
:10051000B0008F778093B00008958091B0008F7DF8
:10052000F9CF1F93CF93DF93282F30E0F901E250EA
:10053000FF4F8491F901EE5EFE4FD491F901E05D29
:10054000FE4FC491CC23A9F0162F81110E9468029E
:10055000EC2FF0E0EE0FFF1FEA5DFE4FA591B49186
:100560008FB7F894EC91111108C0D095DE23DC937D
:100570008FBFDF91CF911F910895DE2BF8CF90911F
:10058000000189130BC0E4E4F1E0E4919FEF909344
:100590000001E13049F028F0E23061F060E00C94B5
:1005A000910210926E00FACF90916F009D7F909310
:1005B0006F00F4CF909170009D7F9093700091E058
:1005C0009093B0009091B100987F94609093B100A7
:1005D0001092B300E3CFCF93DF9390E0FC01EE5E87
:1005E000FE4F2491805D9E4FFC0184918823C9F0C9
:1005F00090E0880F991FFC01EC50FF4FA591B4913A
:10060000FC01EA5DFE4FC591D49161110DC09FB709
:10061000F8948C91209582238C93888128232883B9
:100620009FBFDF91CF910895623051F49FB7F89446
:100630003C91822F809583238C93E8812E2BEFCFE2
:100640008FB7F894EC912E2B2C938FBFEACF8F921B
:100650009F92AF92BF92CF92DF92EF92FF92CF9391
:100660006C0180910001853069F08F3F09F470C002
:10067000CF91FF90EF90DF90CF90BF90AF909F9081
:100680008F900895E4E4F1E0C491C7FDF1CF61E0FB
:1006900085E00E94EB02CC2319F0C23009F022C1A0
:1006A000F12CE12C60E072E18AE790E0A70196016D
:1006B0000E94EA0F49015A01DA01C9010197A10913
:1006C000B1098F3F9105A105B10509F00CF4EEC009
:1006D00060E472E48FE090E0A70196010E94EA0FC7
:1006E0002150310941095109C23009F0A0C082E00E
:1006F0002F3F31054105510509F00CF488C160E92F
:1007000070ED83E090E0A70196010E94EA0F21506E
:1007100031094109510983E02F3F31054105510558
:1007200009F00CF474C168E478EE81E090E0A70170
:1007300096010E94EA0F21503109410951092F3FCA
:1007400031054105510511F00CF08FC084E05FC107
:1007500085E080930001E4E4F1E0C491CF3F09F427
:1007600087CFC13021F150F0C23009F43EC0C7FD3F
:100770007FCF61E085E00E94EB028FCF14BC15BCF7
:1007800084B5826084BD85B5816085BDE5E3F1E017
:10079000E491F0E0EE0FFF1FEA5DFE4F859194912A
:1007A000E7E1F1E0E491E093CA01C0E070CF10927C
:1007B0008000109281008091810088608093810088
:1007C00080918100816080938100E5E3F1E0E49114
:1007D000F0E0EE0FFF1FEA5DFE4F85919491E7E197
:1007E000F1E0E491E093C90152CF1092B000109271
:1007F000B1008091B00082608093B0008091B10020
:1008000081608093B100E5E3F1E0E491F0E0EE0F68
:10081000FF1FEA5DFE4F859194919093C8018093EC
:10082000C701E7E1F1E0E491E093C60130CF2F3F4B
:1008300031054105510509F00CF452C068E478EE29
:1008400081E090E0A70196010E94EA0F2150310952
:1008500041095109CC2309F4AFC02F3F31054105AF
:10086000510511F00CF0B0C071CF64E274EF80E07C
:1008700090E0A70196010E94EA0F21503109410939
:10088000510985E02F3F31054105510509F008F474
:10089000BEC062E17AE780E090E0A70196010E9485
:1008A000EA0F21503109410951099CC09C0181E0A6
:1008B000C111ADC095B5987F892B85BD27BD8FEF40
:1008C0009FEFDC018093D3019093D401A093D501D5
:1008D000B093D60180916E00826080936E00C8CE86
:1008E00082E0E6CFF12CE12C60E072E18AE790E053
:1008F000A70196010E94EA0F2150310941095109CF
:1009000091E02115310581E0480751056CF068E45C
:1009100078EE81E090E0A70196010E94EA0F215055
:1009200031094109510993E0C13009F076C0809145
:100930008100887F892B80938100309389002093E8
:1009400088008FEF9FEFDC018093CF019093D0015F
:10095000A093D101B093D20180916F008260809307
:100960006F0086CE2093B3008FEF9FEFDC01809362
:10097000CB019093CC01A093CD01B093CE01809197
:10098000700082608093700073CE84E02F3F310549
:100990004105510509F008F48DCF9AE0B594A7946C
:1009A000979487949A95D1F7A50194012150310924
:1009B0004109510985E07ECF83E02F3F3105410594
:1009C000510509F00CF476CF62E17AE780E090E01F
:1009D000A70196010E94EA0F2150310941095109EE
:1009E000CC2399F286E02F3F31054105510579F07E
:1009F00070F08AE0B594A794979487948A95D1F77C
:100A0000A5019401215031094109510987E09091D4
:100A1000B100987F892B8093B100C13009F48DCF4C
:100A2000C23009F49FCFC11123CE48CF3FB7F8940D
:100A30008091B6019091B701A091B801B091B90130
:100A400026B5A89B05C02F3F19F00196A11DB11D29
:100A50003FBFBA2FA92F982F8827BC01CD01620F65
:100A6000711D811D911D42E0660F771F881F991F20
:100A70004A95D1F708950F931F93FC01608171810E
:100A8000828193814FB7F8940091B2011091B30124
:100A90002091B4013091B5014FBF601B710B820BE7
:100AA000930B97FF03C060E070E0CB011F910F91A3
:100AB00008950F931F93FC012FB7F8948091B20112
:100AC0009091B301A091B401B091B5012FBF8C01F9
:100AD0009D01040F151F261F371FC901B801608330
:100AE0007183828393831F910F9108950F931F93B6
:100AF000CF93DF93EC018B0185E091E099838883AC
:100B00001F821E82CE010E94B90D87E191E0998378
:100B1000888340E050E0BA01CE0144960E94590516
:100B20008091C5018F5F8093C5011B861A86198647
:100B300018861F821E82EA81FB818091D7019091E5
:100B4000D8019B838A83D093D801C093D701E8173B
:100B5000F90759F0F093DA01E093D901228133814A
:100B60008217930761F4D383C28382E08C83B80138
:100B7000CE01DF91CF911F910F910C944B01F901A0
:100B8000EDCFFC01858183FB882780F90895FC0166
:100B9000858183FF03C08581877F85830895FC015C
:100BA0008581843018F08581886085830895CF938E
:100BB000DF93EC018D8183FD1CC08D8184FF19C002
:100BC00080917E028F5F80937E0285E08D83E88135
:100BD000F9810280F381E02DCE01099584E08D83B7
:100BE00080917E02815080937E0281E0DF91CF91DF
:100BF000089580E0FBCFCF93DF93FC012581223065
:100C000050F0EC010190F081E02D0190F081E02D99
:100C1000099584E08D83DF91CF910895FC01A09127
:100C2000D901B091DA01A817B90759F482819381EB
:100C30009093DA018093D90115820895DC01892B04
:100C4000D9F312968D919C9113978E179F07B1F748
:100C50008281938113969C938E931297EDCFCF93BD
:100C6000DF93EC0185E091E099838883CE010E94B7
:100C70000E068091D7019091D8018C179D0731F411
:100C80008A819B819093D8018093D7018C81843095
:100C900011F0823089F480918302909184022C8536
:100CA0003D85821B930B90938402809383028091F5
:100CB000C50181508093C501DF91CF9108952F9296
:100CC0003F924F925F926F927F928F929F92AF92DC
:100CD000BF92CF92DF92EF92FF920F931F93CF9329
:100CE000DF93EB012DB63EB628823982EC012880D5
:100CF00039804FB6F8943EBE2DBE4FBEDF91CF91E6
:100D00001F910F91FF90EF90DF90CF90BF90AF9029
:100D10009F908F907F906F905F904F903F902F901B
:100D20000895CF93DF93EC018A819B81BE01685FB8
:100D30007F4F009709F42AC0FC0125812C722430D2
:100D400029F590937B0280937A0290937D028093A1
:100D50007C0208960E945F060FB6F89486B515B21D
:100D60009091B6010FBE10FE03C08F3F09F0915065
:100D700011240024990F990F880F001C880F001C64
:100D800090299F878E87DF91CF91089510927D02E1
:100D900010927C0288E792E0DDCF20917E02211143
:100DA00016C0FC01228933892617370714F4738B88
:100DB000628BFC0120893189A90155954795641BF7
:100DC000750B620F731F718B608B0C9491060895E5
:100DD000CF93DF9380917C0290917D02009709F47C
:100DE0002FC0FC01248535852115310509F10FB689
:100DF000F89466B515B27091B6010FBE10FE03C02F
:100E00006F3F09F0715011240024770F770F660FA0
:100E1000001C660F001C702946855785641B750BE6
:100E2000621773070CF487C0DF91CF910C94CD0645
:100E300020917E0221117FC0DF91CF910C94910609
:100E400080917E02811177C0C091D901D091DA01E1
:100E50002091D7013091D8012C173D0759F0E88136
:100E6000F9810680F781E02DCE0109950A80DB81AA
:100E7000C02DEECF80917A0290917B02892B09F0F0
:100E800047C0209709F457C00FB6F89486B515B23D
:100E90009091B6010FBE10FE03C08F3F09F0915034
:100EA00011240024990F990F880F001C880F001C33
:100EB00090294E855F85841B950B4091810250914E
:100EC0008202452B39F040918302509184028417AD
:100ED00095078CF130937B0220937A022091870250
:100EE000309188022817390724F490938802809360
:100EF00087022091850230918602A9015595479578
:100F0000841B950B820F931F90938602809385021A
:100F1000C0917A02D0917B02E881F9810680F78145
:100F2000E02DCE0109958A819B8190937B0280936D
:100F30007A02892B69F7DF91CF910895CF92DF92E2
:100F4000EF92FF92CF93DF93CDB7DEB728970FB61E
:100F5000F894DEBF0FBECDBF6B017C0140E050E0D6
:100F6000BA01CE0101960E945905B701A601CE0132
:100F700001960E945905CE0101960E943B05672B00
:100F8000682B692B19F00E94E806F5CF28960FB65A
:100F9000F894DEBF0FBECDBFDF91CF91FF90EF90F1
:100FA000DF90CF900895DC0115962C91159722FFC4
:100FB00029C015962C91287259F490937D02809344
:100FC0007C0268E772E008960E945F0681E008955F
:100FD0000FB6F89426B515B23091B6010FBE10FECB
:100FE00003C02F3F09F0315011240024330F330F79
:100FF000220F001C220F001C3029FC013787268796
:1010000080E0089515962C91159721FFF9CFED9169
:10101000FC910480F581E02D0995F2CF0895DC0163
:101020001696ED91FC91309709F009940895DC0132
:101030001696ED91FC91309709F00994089560910E
:10104000AC017091AD018091AE019091AF010E9411
:101050002C11CB010C942703CF93DF93EC0162E0BA
:101060000E94EB029E01FE01E250FF4F8491FE01BF
:10107000EE5EFE4FD491F901E05DFE4FC491CC23AA
:1010800079F081110E946802EC2FF0E0EE0FFF1F53
:10109000E651FF4FA591B491EC91ED2381E009F465
:1010A00080E08170DF91CF910895CF93C82F60E0E9
:1010B0000E94EB02C064C0937C0080917A0080643F
:1010C00080937A0080917A0086FDFCCF8091780031
:1010D00090917900CF910895CF93DF93C82FD62FA9
:1010E00061E00E94EB026D2F8C2FDF91CF910C9469
:1010F000910282E090E00E942C08882349F060E091
:1011000087E090E00E946C0880E895E20C94270349
:1011100085E00E94BF0261E087E090E00C946C08DB
:10112000CF9384E090E00E942C08811114C080913C
:10113000AB01811110C0C1E0C093AA0160E087E05B
:1011400090E00E946C08C093AB011092C101109214
:10115000C001CF9108958091AA018823C1F08091A8
:10116000A9018823B1F32091C2013091C30180917C
:10117000A7019091A801281739071CF4CF910C946E
:101180001F081092AA0185E0CF910C94BF0284E061
:1011900090E00E942C08811103C0CF910C94790833
:1011A0001092C1011092C0011092AB01F6CF8F9244
:1011B0009F92AF92BF92CF92DF92EF92FF92CF9326
:1011C000DF9384E090E00E942C08882389F08091CE
:1011D000AA0181110DC01092A601DF91CF91FF905D
:1011E000EF90DF90CF90BF90AF909F908F90089539
:1011F0008091A901882389F38091A60181117DC086
:1012000081E090E00E9455087C0181E090E00E941E
:101210005508EC0120E03DE7D7010E94101428EEAC
:10122000C22E23E0D22EE12CF12CA70196010E94C0
:10123000EA0FCA01B9010E945D114B015C0120E077
:101240003DE7DE010E941014A70196010E94EA0FFB
:10125000CA01B9010E945D112DEC3CEC4CE45EE347
:101260000E94EE119B01AC01C501B4010E944D101A
:101270006093AC017093AD018093AE019093AF0188
:1012800081E090E00E9455085C0181E090E00E94BE
:101290005508EC0120E03DE7D5010E941014A7019C
:1012A00096010E94EA0FCA01B9010E945D114B012B
:1012B0005C0120E03DE7DE010E941014A7019601C9
:1012C0000E94EA0FCA01B9010E945D112DEC3CECAD
:1012D0004CE45FE30E94EE119B01AC01C501B40137
:1012E0000E944D106093A2017093A3018093A4010A
:1012F0009093A50181E08093A60181E090E00E9497
:101300005508C090AC01D090AD01E090AE01F090D6
:10131000AF0120E03DE7DC010E94101428EE33E02D
:1013200040E050E00E94EA0FCA01B9010E945D113D
:10133000A70196010E94E91118160CF04ECF20E08B
:1013400030E040E252E46091A2017091A3018091EB
:10135000A4019091A5010E94BA10A70196010E94D4
:101360004E106093AC017093AD018093AE019093E9
:10137000AF016AE070E080E090E0DF91CF91FF90F4
:10138000EF90DF90CF90BF90AF909F908F900C9494
:101390009E07089590E080E00E9455088A3F9105DD
:1013A000ACF41092AA0184E090E00E942C08811114
:1013B0000BC060E087E090E00E946C088091A9017A
:1013C0008823E1F10C941F080C94790890E080E0E8
:1013D0000E945508843F9140A4F483E090E09093EC
:1013E000A8018093A70186E696E6AEE0B1E480937B
:1013F000BC019093BD01A093BE01B093BF010C94BA
:10140000900890E080E00E9455088E3E92405CF487
:1014100082E090E09093A8018093A70180E090E0A3
:10142000A0E0B1E4E4CF81E090E09093A801809344
:10143000A7018DEC9CECACEEB0E4D9CF089580917F
:10144000AA018823F9F082E090E00E942C08811123
:1014500010C08091A10181110CC08091C2019091B6
:10146000C30101969093C3018093C20181E08093F0
:10147000A10182E090E00E942C08882351F0109294
:10148000A101089581E08093A1011092C3011092FF
:10149000C2010895EF92FF920F931F93CF93DF93B2
:1014A0008091C401811194C084E090E00E942C08D6
:1014B000882391F08091AA0181110EC08091BA0118
:1014C0009091BB01863291050CF07CC081E0809345
:1014D000A0011092A9015EC08091A0018823C9F1EA
:1014E000E0909E01F0909F0182E090E00E945508FC
:1014F0008C01E701D7FF02C0D0E0C0E02091BA0123
:101500003091BB01032E000C440B550B25523109C1
:1015100041095109A2E3B0E00E9409102FE830E030
:1015200040E050E00E94EA0FC21BD30B22E330E000
:10153000D8010E9410142FEF33E040E050E00E94E9
:10154000EA0F2C0F3D1F30939F0120939E011092B4
:10155000A00182E090E00E9455082FE830E0DC0115
:101560000E9410142FEF33E040E050E00E94EA0F99
:101570002B5D3F4F4F4F5F4F3093BB012093BA011C
:1015800080919E0190919F0118161906ACF081E0A0
:101590008093A9018091BA019091BB010E94CF0074
:1015A0006AE070E080E090E0DF91CF911F910F91B1
:1015B000FF90EF900C949E07019790939F0180936A
:1015C0009E01E8CF01979093BB018093BA017ECF33
:1015D000DF91CF911F910F91FF90EF900895CF93DE
:1015E000DF93FC0120853185232B09F491C0EC01A8
:1015F000858181FF5AC0F89468E772E0CB010E94B0
:101600005F068D8182FF3DC0198A188A1B8A1A8A5B
:1016100085E08D838D8183FD2CC0E881F98106846E
:10162000F785E02DCE0109958C859D85009709F100
:101630000FB6F89466B515B27091B6010FBE10FEE4
:1016400003C06F3F09F0715011240024770F770F0A
:10165000660F001C660F001C70292E853F85621BDB
:10166000730B681779070CF4D5CFCE010E94CD0615
:10167000D1CF80917E028111CDCFCE010E94910603
:10168000C9CF8091780290917902EDB7FEB7A88515
:10169000B9859D01215031093987288720812C93F4
:1016A00031978E179F0799F77894CE010E94FB051A
:1016B00020917F02309180023D872C8780918302A8
:1016C00090918402820F931F9093840280938302EF
:1016D0000FB6F89486B515B29091B6010FBE10FE04
:1016E00003C08F3F09F0915011240024990F990FE6
:1016F000880F001C880F001C90299F878E8740E070
:1017000050E0BA01CE014496DF91CF910C94590577
:10171000DF91CF9108958F929F92AF92BF92CF9217
:10172000DF92EF92FF928091A901882309F45EC0B5
:101730008091AA01882379F08091C0019091C10124
:1017400001969093C1018093C0016AE070E080E04F
:1017500090E00E949E076091C0017091C101072E28
:10176000000C880B990B0E945D116B017C0160914C
:10177000BC017091BD018091BE019091BF0120E03C
:1017800030E040EC50E40E945B124B015C0190E0C1
:1017900080E00E945508BC01990F880B990B0E94AC
:1017A0005D119B01AC01C501B4010E94BA1020E09B
:1017B00030E040E251E40E94BA109B01AC01C70145
:1017C000B6010E94E91187FD11C01092AA01109282
:1017D000C1011092C00185E0FF90EF90DF90CF90A3
:1017E000BF90AF909F908F900C94BF02FF90EF90AE
:1017F000DF90CF90BF90AF909F908F9008951F92F1
:101800000F920FB60F9211242F933F934F935F9334
:101810006F937F938F939F93AF93BF93EF93FF93B8
:101820008091CB019091CC01A091CD01B091CE01DE
:10183000892B8A2B8B2BD1F19091C601E091C701A6
:10184000F091C8018081892780838091CB0190919C
:10185000CC01A091CD01B091CE01181619061A063F
:101860001B069CF48091CB019091CC01A091CD01FD
:10187000B091CE010197A109B1098093CB0190935A
:10188000CC01A093CD01B093CE01FF91EF91BF9118
:10189000AF919F918F917F916F915F914F913F9108
:1018A0002F910F900FBE0F901F90189580910001FF
:1018B0000E94BF02EACF1F920F920FB60F9211241F
:1018C0002F933F934F935F936F937F938F939F9348
:1018D000AF93BF93EF93FF938BED91E00E9498013C
:1018E000FF91EF91BF91AF919F918F917F916F91F8
:1018F0005F914F913F912F910F900FBE0F901F90CE
:1019000018951F920F920FB60F9211242F938F9359
:101910009F93EF93FF93E091EB01F091EC018081B5
:10192000E091F101F091F20182FD1BC09081809164
:10193000F4018F5F8F732091F501821741F0E091E0
:10194000F401F0E0E552FE4F958F8093F401FF9192
:10195000EF919F918F912F910F900FBE0F901F903D
:1019600018958081F4CF1F920F920FB60F92112419
:101970002F933F938F939F93AF93BF938091B20127
:101980009091B301A091B401B091B5013091B10132
:1019900023E0230F2D3758F50196A11DB11D20938B
:1019A000B1018093B2019093B301A093B401B093BD
:1019B000B5018091B6019091B701A091B801B091A5
:1019C000B9010196A11DB11D8093B6019093B70195
:1019D000A093B801B093B901BF91AF919F918F913E
:1019E0003F912F910F900FBE0F901F90189526E8F2
:1019F000230F0296A11DB11DD2CF1F920F920FB6D9
:101A00000F9211242F933F934F935F936F937F9384
:101A10008F939F93AF93BF93CF93DF93EF93FF93F6
:101A20008091B001C091AD02D0E087FF24C0109238
:101A30008500109284008091B0018F5F8093B00187
:101A40008091B001082E000C990B8C179D0724F48F
:101A50008091B0018C30C4F1809184009091850018
:101A6000049680349C4908F47AC080918400909157
:101A70008500049676C08091B001082E000C990B69
:101A80008C179D07C4F6E091B0018E2FEE0F990BD5
:101A9000FC01EE0FFF1FE80FF91FE757FD4F808194
:101AA00086FFC9CFE091B0018E2FEE0F990BFC019C
:101AB000EE0FFF1FE80FF91FE757FD4F808160E031
:101AC0008F730E949102B7CF2091840030918500DE
:101AD000E091B0018E2FEE0F990BFC01EE0FFF1F6E
:101AE000E80FF91FE757FD4F81819281820F931F05
:101AF0009093890080938800E091B0018E2FEE0FC3
:101B0000990BFC01EE0FFF1FE80FF91FE757FD4F80
:101B1000808186FF11C0E091B0018E2FEE0F990BEE
:101B2000FC01EE0FFF1FE80FF91FE757FD4F808103
:101B300061E08F730E949102FF91EF91DF91CF914D
:101B4000BF91AF919F918F917F916F915F914F91D5
:101B50003F912F910F900FBE0F901F90189580E42A
:101B60009CE990938900809388008FEF8093B00167
:101B7000E3CFFC018091D9019091DA0193838283B4
:101B8000F093DA01E093D90181E08483858308959D
:101B9000CF931092DE011092DD0188EE93E0A0E079
:101BA000B0E08093DF019093E001A093E101B09356
:101BB000E2018BE291E09093DC018093DB0185EC04
:101BC00090E09093E8018093E70184EC90E090939B
:101BD000EA018093E90180EC90E09093EC0180931E
:101BE000EB0181EC90E09093EE018093ED0182ECAB
:101BF00090E09093F0018093EF0186EC90E0909359
:101C0000F2018093F1011092F4011092F50110920B
:101C1000F6011092F70180E991E0909380028093A1
:101C20007F0290938202809381021092840210922C
:101C300083021092860210928502109288021092FE
:101C4000870210927B0210927A0210927D0210920B
:101C50007C0281E080937E028091AD028C3008F09E
:101C60005BC091E0980F9093AD028093AE0290E03C
:101C7000FC01EE0FFF1FE80FF91FE757FD4F88EB40
:101C80009BE09283818369E075E08FE096E00E949B
:101C900076058DE891E09093100680930F06C2E0E0
:101CA000C093140663E774E083EF95E00E94760525
:101CB00089E791E09093F4058093F305C093F805CC
:101CC0006DED73E087ED95E00E94760585E691E085
:101CD0009093D8058093D705C093DC0567E473E043
:101CE0008BEB95E00E94760581E591E09093BC0531
:101CF0008093BB05C093C00561EB72E08FE995E06E
:101D00000E9476058DE391E09093A00580939F0556
:101D1000C093A405CF9108958FEF8093AE02B3CF07
:101D2000789484B5826084BD84B5816084BD85B5B6
:101D3000826085BD85B5816085BD80916E008160C2
:101D400080936E0010928100809181008260809368
:101D5000810080918100816080938100809180006A
:101D60008160809380008091B10084608093B10095
:101D70008091B00081608093B00080917A0084608F
:101D800080937A0080917A00826080937A008091BB
:101D90007A00816080937A0080917A0080688093D5
:101DA0007A001092C10062E084E00E94EB0262E0DF
:101DB00082E00E94EB028091AE028C3008F051C0AC
:101DC00061E083E00E94EB028091AE02282F30E0B8
:101DD000F901EE0FFF1FE20FF31FE757FD4F908150
:101DE000907C936090831092AF021092B0022CE02E
:101DF000622F0E940414829FB001112430E020E081
:101E0000AB01420F531FFA01EE0FFF1FE40FF51F46
:101E1000E757FD4F908196FD16C02F5F3F4F2C3046
:101E2000310571F781110FC01092800082E080931C
:101E300081001092850010928400B19A80916F0009
:101E4000826080936F00E091AE028E2F90E0FC01E3
:101E5000EE0FFF1FE80FF91FE757FD4F80818064E9
:101E6000808380918102909182029093840280937A
:101E700083028091D9019091DA0190937B02809343
:101E80007A0280917A0290917B02009771F0DC01D6
:101E9000ED91FC910480F581E02D0995E0917A02A5
:101EA000F0917B0282819381E8CF10927E0281E0E3
:101EB0008093C40161E087E090E00E946C0861E0DB
:101EC00086E090E00E946C081092C3011092C2015B
:101ED0001092C1011092C00180E090E0A0E2B1E454
:101EE0008093BC019093BD01A093BE01B093BF014C
:101EF00085E290E09093BB018093BA010E94CF00ED
:101F00000E9416056B017C0186E7882E86E1982EDB
:101F1000A12CB12C0E94E8060E9416056C197D09BF
:101F20008E099F09683E73408105910598F3B1E0E1
:101F30008B1A9108A108B10828EEC20E23E0D21E28
:101F4000E11CF11C81149104A104B10429F7109241
:101F5000C401C0E0D0E068EE73E080E090E00E9451
:101F60009E070E94E8062097B1F30E94270288236B
:101F700091F30E940000EFCFCF93DF93C7E1D1E050
:101F8000D093A005C0939F058FE995E00E942F068E
:101F9000D093BC05C093BB058BEB95E00E942F0648
:101FA000D093D805C093D70587ED95E00E942F0602
:101FB000D093F405C093F30583EF95E00E942F06BC
:101FC000D0931006C0930F068FE096E0DF91CF917B
:101FD0000C942F06052E97FB1EF400940E9401100E
:101FE00057FD07D00E941C1007FC03D04EF40C9440
:101FF000011050954095309521953F4F4F4F5F4FC1
:10200000089590958095709561957F4F8F4F9F4F64
:1020100008950E943E10A59F900DB49F900DA49F1F
:10202000800D911D11240895B7FF0C9409100E9492
:102030000910821B930B0895A1E21A2EAA1BBB1B49
:10204000FD010DC0AA1FBB1FEE1FFF1FA217B30784
:10205000E407F50720F0A21BB30BE40BF50B661F9A
:10206000771F881F991F1A9469F76095709580955E
:1020700090959B01AC01BD01CF010895A29FB001D5
:10208000B39FC001A39F700D811D1124911DB29FAC
:10209000700D811D1124911D08955058BB27AA274A
:1020A0000E9465100C94AF110E94A11138F00E949B
:1020B000A81120F039F49F3F19F426F40C949E11D6
:1020C0000EF4E095E7FB0C949811E92F0E94C011E3
:1020D00058F3BA17620773078407950720F079F45D
:1020E000A6F50C94E2110EF4E0950B2EBA2FA02D5C
:1020F0000B01B90190010C01CA01A0011124FF27B5
:10210000591B99F0593F50F4503E68F11A16F040AF
:10211000A22F232F342F4427585FF3CF46953795AE
:102120002795A795F0405395C9F77EF41F16BA0B73
:10213000620B730B840BBAF09150A1F0FF0FBB1F21
:10214000661F771F881FC2F70EC0BA0F621F731F6A
:10215000841F48F4879577956795B795F7959E3FC7
:1021600008F0B0CF9395880F08F09927EE0F979558
:10217000879508950E94CE100C94AF110E94A8116B
:1021800058F00E94A11140F029F45F3F29F00C940F
:10219000981151110C94E3110C949E110E94C011DE
:1021A00068F39923B1F3552391F3951B550BBB2786
:1021B000AA2762177307840738F09F5F5F4F220FCB
:1021C000331F441FAA1FA9F335D00E2E3AF0E0E8C2
:1021D00032D091505040E695001CCAF72BD0FE2F0C
:1021E00029D0660F771F881FBB1F261737074807A0
:1021F000AB07B0E809F0BB0B802DBF01FF27935858
:102200005F4F3AF09E3F510578F00C9498110C9472
:10221000E3115F3FE4F3983ED4F386957795679595
:10222000B795F7959F5FC9F7880F911D969587958C
:1022300097F90895E1E0660F771F881FBB1F6217AB
:1022400073078407BA0720F0621B730B840BBA0B69
:10225000EE1F88F7E09508950E94C81188F09F57F7
:1022600098F0B92F9927B751B0F0E1F0660F771FBA
:10227000881F991F1AF0BA95C9F714C0B13091F0B0
:102280000E94E211B1E008950C94E211672F782FBB
:102290008827B85F39F0B93FCCF386957795679575
:1022A000B395D9F73EF490958095709561957F4FE1
:1022B0008F4F9F4F0895E89409C097FB3EF4909587
:1022C0008095709561957F4F8F4F9F4F9923A9F00F
:1022D000F92F96E9BB279395F6958795779567959E
:1022E000B795F111F8CFFAF4BB0F11F460FF1BC0E2
:1022F0006F5F7F4F8F4F9F4F16C0882311F096E975
:1023000011C0772321F09EE8872F762F05C0662322
:1023100071F096E8862F70E060E02AF09A95660FDB
:10232000771F881FDAF7880F9695879597F9089594
:1023300097F99F6780E870E060E008959FEF80EC78
:10234000089500240A94161617061806090608951B
:1023500000240A9412161306140605060895092E81
:102360000394000C11F4882352F0BB0F40F4BF2BF0
:1023700011F460FF04C06F5F7F4F8F4F9F4F089530
:1023800057FD9058440F551F59F05F3F71F0479526
:10239000880F97FB991F61F09F3F79F0879508950B
:1023A000121613061406551FF2CF4695F1DF08C02A
:1023B000161617061806991FF1CF86957105610547
:1023C00008940895E894BB2766277727CB0197F9EF
:1023D00008950E94E51208F48FEF08950E940112FB
:1023E0000C94AF110E94A11138F00E94A81120F0A6
:1023F000952311F00C9498110C949E1111240C94B7
:10240000E3110E94C01170F3959FC1F3950F50E046
:10241000551F629FF001729FBB27F00DB11D639F96
:10242000AA27F00DB11DAA1F649F6627B00DA11D3C
:10243000661F829F2227B00DA11D621F739FB00DE2
:10244000A11D621F839FA00D611D221F749F332752
:10245000A00D611D231F849F600D211D822F762FEB
:102460006A2F11249F5750409AF0F1F088234AF0C8
:10247000EE0FFF1FBB1F661F771F881F9150504034
:10248000A9F79E3F510580F00C9498110C94E3112C
:102490005F3FE4F3983ED4F3869577956795B795BB
:1024A000F795E7959F5FC1F7FE2B880F911D9695D5
:1024B000879597F90895FA01EE0FFF1F30962105D1
:1024C0003105A1F16115710561F48038BFE39B0707
:1024D00049F168949038810561F08038BFEF9B071F
:1024E00041F099234AF5FF3FE1053105210519F136
:1024F000E8940894E795D901AA2329F4AB2FBE2FBD
:10250000F85FD0F310C0FF5F70F4A695E0F7F739DD
:1025100050F019F0FF3A38F49F779F930DD00F9049
:1025200007FC9058089546F00C949E1160E070E00E
:1025300080E89FE308954FE79F775F934F933F9322
:102540002F930E947A132F913F914F915F910E9498
:10255000EE110C94B31229F416F00C9498110C940B
:10256000E2110C949E110E94C811A8F39638A0F7AE
:1025700007F80F92E8942BE33AEA48EB5FE70E94F2
:1025800004120F920F920F924DB75EB70F920E94F6
:10259000C213E8E6F0E00E9409134F915F91EF91BA
:1025A000FF91E595EE1FFF1F49F0FE57E0684427B5
:1025B000EE0F441FFA95E1F74195550B0E943C132D
:1025C0000F9007FE0C9430130895990F0008550FD3
:1025D000AA0BE0E8FEEF16161706E807F907C0F0A9
:1025E00012161306E407F50798F0621B730B840BB1
:1025F000950B39F40A2661F0232B242B252B21F48B
:1026000008950A2609F4A140A6958FEF811D811D2A
:102610000895DF93CF931F930F93FF92EF92DF9272
:102620007B018C01689406C0DA2EEF010E94011232
:10263000FE01E894A5912591359145915591A6F318
:10264000EF010E946510FE019701A801DA9469F775
:10265000DF90EF90FF900F911F91CF91DF91089540
:102660009B01AC0160E070E080E89FE30C94BA103D
:102670000C9498110C94F6130E94C811D8F3992366
:10268000C9F3940F511DA3F39150504094F059F0A9
:10269000882332F0660F771F881F91505040C1F792
:1026A0009E3F51052CF7880F911D9695879597F9B8
:1026B00008955F3FACF0983E9CF0BB2786957795D8
:1026C0006795B79508F4B1609395C1F7BB0F58F7BC
:1026D00011F460FFE8CF6F5F7F4F8F4F9F4FE3CFC5
:1026E0000C94E31116F00C94F6130C949E1168945C
:1026F0000C9498110E94C811A8F39923C1F3AEF36A
:10270000DF93CF931F930F93FF92C92FDD27882369
:102710002AF02197660F771F881FDAF720E030E054
:1027200040E85FEB9FE3883920F0803E38F0219647
:102730008F770E944E10E0E9F0E004C00E944E1036
:10274000EDEBF0E00E9409138B01BE01EC01FB2EC2
:102750006F5771097595771F880B990B0E945D1152
:1027600028E132E741E35FE30E940112AF2D9801B7
:10277000AE01FF900F911F91CF91DF910E946510E4
:102780000C94AF11FA01DC01AA0FBB1F9B01AC0135
:10279000BF5728F4222733274427507820C0B75149
:1027A00090F4AB2F0024469537952795011CA395EF
:1027B000D2F3002071F0220F331F441FB395DAF3D8
:1027C0000ED00C944D1061307105A0E88A07B9460F
:1027D00030F49B01AC0166277727882790783096E4
:1027E00021F0208331834283538308959F3F31F04A
:1027F000915020F4879577956795B795880F911D2F
:102800009695879597F90895991B79E004C0991FCB
:10281000961708F0961B881F7A95C9F7809508953A
:102820000E943E10B7FF0895821B930B0895EE0F90
:10283000FF1F0590F491E02D099410E0C4EAD0E068
:1028400004C0FE010E9417142196C53AD107C9F7AA
:10285000F894FFCFFF000000000E081708FB05D713
:1028600005CF05C105C705000000000E080E08EFE2
:102870000AD307CF05C105C7050F0800000000BA3D
:10288000013B025B0107028C016A017E010000002E
:1028900000C9090E08EF0AD307CF05C105C705D740
:1028A0000800000000C9090E08EF0AD307CF05C1D0
:1028B00005C705CA0900000000C9090E08EF0AD3C0
:1028C00007CF05C105C7051F0A00000000C9090E92
:1028D00008EF0AD307CF05C105C7054A0A00000063
:1028E00000C9090E08EF0AD307CF05C105C7058B3C
:0228F0000B00DB
:107E0000112484B714BE81FFF0D085E080938100F7
:107E100082E08093C00088E18093C10086E0809377
:107E2000C20080E18093C4008EE0C9D0259A86E02C
:107E300020E33CEF91E0309385002093840096BBD3
:107E4000B09BFECF1D9AA8958150A9F7CC24DD24C4
:107E500088248394B5E0AB2EA1E19A2EF3E0BF2EE7
:107E6000A2D0813461F49FD0082FAFD0023811F036
:107E7000013811F484E001C083E08DD089C08234E0
:107E800011F484E103C0853419F485E0A6D080C0E4
:107E9000853579F488D0E82EFF2485D0082F10E0AE
:107EA000102F00270E291F29000F111F8ED06801E7
:107EB0006FC0863521F484E090D080E0DECF843638
:107EC00009F040C070D06FD0082F6DD080E0C81688
:107ED00080E7D80618F4F601B7BEE895C0E0D1E017
:107EE00062D089930C17E1F7F0E0CF16F0E7DF06D8
:107EF00018F0F601B7BEE89568D007B600FCFDCFD4
:107F0000A601A0E0B1E02C9130E011968C91119780
:107F100090E0982F8827822B932B1296FA010C0160
:107F200087BEE89511244E5F5F4FF1E0A038BF0790
:107F300051F7F601A7BEE89507B600FCFDCF97BE46
:107F4000E89526C08437B1F42ED02DD0F82E2BD052
:107F50003CD0F601EF2C8F010F5F1F4F84911BD097
:107F6000EA94F801C1F70894C11CD11CFA94CF0C13
:107F7000D11C0EC0853739F428D08EE10CD085E9AC
:107F80000AD08FE07ACF813511F488E018D01DD067
:107F900080E101D065CF982F8091C00085FFFCCF94
:107FA0009093C60008958091C00087FFFCCF809118
:107FB000C00084FD01C0A8958091C6000895E0E648
:107FC000F0E098E1908380830895EDDF803219F02E
:107FD00088E0F5DFFFCF84E1DECF1F93182FE3DFCA
:107FE0001150E9F7F2DF1F91089580E0E8DFEE27F6
:047FF000FF270994CA
:027FFE00040479
:00000001FF
