:100000000C94A5000C94CD000C94CD000C94CD0064
:100010000C94CD000C94CD000C94CD000C94650A8A
:100020000C94CD000C94CD000C94CD000C94630B7B
:100030000C94CD000C94CD000C94CD000C94CD000C
:100040000C94190B0C94CD000C94E70A0C94C10A83
:100050000C94CD000C94CD000C94CD000C94CD00EC
:100060000C94CD000C94CD0007634236B79BD8A703
:100070001A39685618AEBAAB558C1D3CB7CC5763CD
:10008000BD6DEDFD753EF6177231BF000000803F7B
:1000900008000000BE922449123EABAAAA2ABECD97
:1000A000CCCC4C3E00000080BEABAAAAAA3E000009
:1000B0000000BF000000803F000000000008417801
:1000C000D3BB4387D1133D190E3CC3BD4282AD2B38
:1000D0003E68EC8276BED98FE1A93E4C80EFFFBE30
:1000E00001C4FF7F3F00000000000000000023006B
:1000F0002600290000000000240027002A0000003C
:1001000000080002010000030407000000000000D6
:1001100000000102040810204080010204081020A1
:1001200001020408102000000000250028002B0018
:10013000040404040404040402020202020203038D
:100140000303030302002E0C660E11241FBECFEF23
:10015000D8E0DEBFCDBF11E0A0E0B1E0EAE3F5E218
:1001600002C005900D92AE39B107D9F726E0AEE98D
:10017000B1E001C01D92A232B207E1F710E0C4EA7B
:10018000D0E004C02197FE010E948A12C33AD10731
:10019000C9F70E94F60C0C9490120C940000FC011C
:1001A000738762879B012B563F4F31872087FB0166
:1001B00085E5E217F30711F08193FBCF0895FC0169
:1001C000538D448D252F30E0842F90E0821B930BBC
:1001D000541710F0CF96089501970895FC01918D62
:1001E000828D981761F0A28DAE0FBF2FB11D5D9665
:1001F0008C91928D9F5F9F73928F90E008958FEF07
:100200009FEF0895FC01918D828D981731F0828DBA
:10021000E80FF11D858D90E008958FEF9FEF089511
:10022000FC01918D228D892F90E0805C9F4F821B75
:1002300091098F7399270895FC01A48DA80FB92FF8
:10024000B11DA35ABF4F2C91848D90E001968F73FE
:100250009927848FA689B7892C93A089B1898C911D
:10026000837080648C93938D848D981306C002886C
:10027000F389E02D80818F7D80830895EF92FF9236
:100280000F931F93CF93DF93EC0181E0888F9B8DB9
:100290008C8D98131AC0E889F989808185FF15C073
:1002A0009FB7F894EE89FF896083E889F989808196
:1002B0008370806480839FBF81E090E0DF91CF9165
:1002C0001F910F91FF90EF900895F62E0B8D10E087
:1002D0000F5F1F4F0F731127E02E8C8D8E110CC0F6
:1002E0000FB607FCFACFE889F989808185FFF5CF41
:1002F000CE010E941C01F1CFEB8DEC0FFD2FF11D03
:10030000E35AFF4FF0829FB7F8940B8FEA89FB897D
:1003100080818062CFCFCF93DF93EC01888D8823DB
:10032000B9F0AA89BB89E889F9898C9185FD03C058
:10033000808186FD0DC00FB607FCF7CF8C9185FF3D
:10034000F2CF808185FFEDCFCE010E941C01E9CF65
:10035000DF91CF91089582ED91E00E94100121E09C
:10036000892B09F420E0822F089580E090E0892B0A
:1003700029F00E94AB0181110C9400000895AF9206
:10038000BF92CF92DF92EF92FF920F931F93CF9382
:10039000DF936C017B018B01040F151FEB015E01E4
:1003A000AE18BF08C017D10759F06991D601ED9179
:1003B000FC910190F081E02DC6010995892B79F718
:1003C000C501DF91CF911F910F91FF90EF90DF90CA
:1003D000CF90BF90AF900895833081F028F48130A2
:1003E00099F08230A9F008958730A9F08830C9F0DB
:1003F0008430B1F4809180008F7D03C080918000B3
:100400008F7780938000089584B58F7784BD089599
:1004100084B58F7DFBCF8091B0008F778093B00043
:1004200008958091B0008F7DF9CF1F93CF93DF9314
:10043000282F30E0F901E250FF4F8491F901EE5E80
:10044000FE4FD491F901E05DFE4FC491CC23A9F099
:10045000162F81110E94EC01EC2FF0E0EE0FFF1F30
:10046000EA5DFE4FA591B4918FB7F894EC9111110C
:1004700008C0D095DE23DC938FBFDF91CF911F9111
:100480000895DE2BF8CF9091000189130BC0E4E4AE
:10049000F1E0E4919FEF90930001E13049F028F002
:1004A000E23061F060E00C94150210926E00FACF19
:1004B00090916F009D7F90936F00F4CF90917000AA
:1004C0009D7F9093700091E09093B0009091B10067
:1004D000987F94609093B1001092B300E3CFCF93D4
:1004E000DF9390E0FC01EE5EFE4F2491805D9E4F15
:1004F000FC0184918823D1F090E0880F991FFC01C2
:10050000EC50FF4FA591B491FC01EA5DFE4FC591FF
:10051000D49161110EC09FB7F8948C91E22FE095B1
:100520008E238C932881E223E8839FBFDF91CF91B4
:1005300008958FB7F894EC91E22BEC938FBFF6CF30
:100540008F929F92AF92BF92CF92DF92EF92FF92E3
:10055000CF936C0180910001853069F08F3F09F4E1
:1005600070C0CF91FF90EF90DF90CF90BF90AF9091
:100570009F908F900895E4E4F1E0C491C7FDF1CF1E
:1005800061E085E00E946F02CC2319F0C23009F0CF
:1005900022C1F12CE12C60E072E18AE790E0A70132
:1005A00096010E94940E49015A01DA01C90101978E
:1005B000A109B1098F3F9105A105B10509F00CF41E
:1005C000EEC060E472E48FE090E0A70196010E9423
:1005D000940E2150310941095109C23009F0A0C0DF
:1005E00082E02F3F31054105510509F00CF488C127
:1005F00060E970ED83E090E0A70196010E94940EFF
:10060000215031094109510983E02F3F310541054E
:10061000510509F00CF474C168E478EE81E090E0D3
:10062000A70196010E94940E2150310941095109F8
:100630002F3F31054105510511F00CF08FC084E0CA
:100640005FC185E080930001E4E4F1E0C491CF3F15
:1006500009F487CFC13021F150F0C23009F43EC017
:10066000C7FD7FCF61E085E00E946F028FCF14BC91
:1006700015BC84B5826084BD85B5816085BDE5E328
:10068000F1E0E491F0E0EE0FFF1FEA5DFE4F85918F
:100690009491E7E1F1E0E491E093C101C0E070CF13
:1006A0001092800010928100809181008860809378
:1006B000810080918100816080938100E5E3F1E019
:1006C000E491F0E0EE0FFF1FEA5DFE4F85919491FB
:1006D000E7E1F1E0E491E093C00152CF1092B00065
:1006E0001092B1008091B00082608093B000809140
:1006F000B10081608093B100E5E3F1E0E491F0E0C6
:10070000EE0FFF1FEA5DFE4F859194919093BF011C
:100710008093BE01E7E1F1E0E491E093BD0130CFC9
:100720002F3F31054105510509F00CF452C068E432
:1007300078EE81E090E0A70196010E94940E21508E
:10074000310941095109CC2309F4AFC02F3F3105CC
:100750004105510511F00CF0B0C071CF64E274EFA7
:1007600080E090E0A70196010E94940E215031098B
:100770004109510985E02F3F31054105510509F037
:1007800008F4BEC062E17AE780E090E0A70196013C
:100790000E94940E21503109410951099CC09C01CD
:1007A00081E0C111ADC095B5987F892B85BD27BD6E
:1007B0008FEF9FEFDC018093CA019093CB01A09350
:1007C000CC01B093CD0180916E00826080936E0069
:1007D000C8CE82E0E6CFF12CE12C60E072E18AE73E
:1007E00090E0A70196010E94940E21503109410921
:1007F000510991E02115310581E0480751056CF060
:1008000068E478EE81E090E0A70196010E94940EE2
:10081000215031094109510993E0C13009F076C0F6
:1008200080918100887F892B80938100309389009B
:10083000209388008FEF9FEFDC018093C601909397
:10084000C701A093C801B093C90180916F00826075
:1008500080936F0086CE2093B3008FEF9FEFDC0173
:100860008093C2019093C301A093C401B093C501CA
:100870008091700082608093700073CE84E02F3F7F
:1008800031054105510509F008F48DCF9AE0B59482
:10089000A794979487949A95D1F7A5019401215034
:1008A00031094109510985E07ECF83E02F3F3105B1
:1008B0004105510509F00CF476CF62E17AE780E05A
:1008C00090E0A70196010E94940E21503109410940
:1008D0005109CC2399F286E02F3F3105410551059E
:1008E00079F070F08AE0B594A794979487948A95EC
:1008F000D1F7A5019401215031094109510987E03F
:100900009091B100987F892B8093B100C13009F498
:100910008DCFC23009F49FCFC11123CE48CF3FB74E
:10092000F8948091AD019091AE01A091AF01B0918A
:10093000B00126B5A89B05C02F3F19F00196A11D57
:10094000B11D3FBFBA2FA92F982F8827BC01CD0119
:10095000620F711D811D911D42E0660F771F881F78
:10096000991F4A95D1F708950F931F93FC01608159
:100970007181828193814FB7F8940091A901109100
:10098000AA012091AB013091AC014FBF601B710BEC
:10099000820B930B97FF03C060E070E0CB011F91C7
:1009A0000F9108950F931F93FC012FB7F894809136
:1009B000A9019091AA01A091AB01B091AC012FBF08
:1009C0008C019D01040F151F261F371FC901B80197
:1009D00060837183828393831F910F9108950F9396
:1009E0001F93CF93DF93EC018B0185E091E0998316
:1009F00088831F821E82CE010E941F0C87E191E036
:100A00009983888340E050E0BA01CE0144960E9469
:100A1000D2048091BC018F5F8093BC011B861A8633
:100A2000198618861F821E82EA81FB818091CE0181
:100A30009091CF019B838A83D093CF01C093CE0145
:100A4000E817F90759F0F093D101E093D001228122
:100A500033818217930761F4D383C28382E08C834E
:100A6000B801CE01DF91CF911F910F910C94CF006F
:100A7000F901EDCFFC01858183FB882780F908957A
:100A8000FC01858183FF03C08581877F858308956D
:100A9000FC018581843018F0858188608583089504
:100AA000CF93DF93EC018D8183FD1CC08D8184FF8A
:100AB00019C0809175028F5F8093750285E08D83E8
:100AC000E881F9810280F381E02DCE01099584E06F
:100AD0008D838091750281508093750281E0DF9152
:100AE000CF91089580E0FBCFCF93DF93FC01258168
:100AF000223050F0EC010190F081E02D0190F08166
:100B0000E02D099584E08D83DF91CF910895FC015C
:100B1000A091D001B091D101A817B90759F48281F1
:100B200093819093D1018093D00115820895DC01C7
:100B3000892BD9F312968D919C9113978E179F074D
:100B4000B1F78281938113969C938E931297EDCF88
:100B5000CF93DF93EC0185E091E099838883CE0108
:100B60000E9487058091CE019091CF018C179D073F
:100B700031F48A819B819093CF018093CE018C8147
:100B8000843011F0823089F480917A0290917B0256
:100B90002C853D85821B930B90937B0280937A0278
:100BA0008091BC0181508093BC01DF91CF91089569
:100BB0002F923F924F925F926F927F928F929F926D
:100BC000AF92BF92CF92DF92EF92FF920F931F935B
:100BD000CF93DF93EB012DB63EB628823982EC012C
:100BE000288039804FB6F8943EBE2DBE4FBEDF91AF
:100BF000CF911F910F91FF90EF90DF90CF90BF901A
:100C0000AF909F908F907F906F905F904F903F90AC
:100C10002F900895CF93DF93EC018A819B81BE01D1
:100C2000685F7F4F009709F42AC0FC0125812C7270
:100C3000243029F59093720280937102909374028C
:100C40008093730208960E94D8050FB6F89486B573
:100C500015B29091AD010FBE10FE03C08F3F09F099
:100C6000915011240024990F990F880F001C880FB0
:100C7000001C90299F878E87DF91CF910895109255
:100C80007402109273028FE692E0DDCF209175021C
:100C9000211116C0FC01228933892617370714F465
:100CA000738B628BFC0120893189A9015595479589
:100CB000641B750B620F731F718B608B0C940A069B
:100CC0000895CF93DF9380917302909174020097FF
:100CD00009F42FC0FC01248535852115310509F162
:100CE0000FB6F89466B515B27091AD010FBE10FE47
:100CF00003C06F3F09F0715011240024770F770F64
:100D0000660F001C660F001C702946855785641B02
:100D1000750B621773070CF487C0DF91CF910C94A9
:100D200046062091750221117FC0DF91CF910C946E
:100D30000A0680917502811177C0C091D001D091CF
:100D4000D1012091CE013091CF012C173D0759F0F0
:100D5000E881F9810680F781E02DCE0109950A80AE
:100D6000DB81C02DEECF8091710290917202892BB0
:100D700009F047C0209709F457C00FB6F89486B51C
:100D800015B29091AD010FBE10FE03C08F3F09F068
:100D9000915011240024990F990F880F001C880F7F
:100DA000001C90294E855F85841B950B409178022D
:100DB00050917902452B39F040917A0250917B0293
:100DC000841795078CF13093720220937102209161
:100DD0007E0230917F022817390724F490937F0216
:100DE00080937E0220917C0230917D02A90155956D
:100DF0004795841B950B820F931F90937D028093E0
:100E00007C02C0917102D0917202E881F981068062
:100E1000F781E02DCE0109958A819B819093720222
:100E200080937102892B69F7DF91CF910895CF925A
:100E3000DF92EF92FF92CF93DF93CDB7DEB7289783
:100E40000FB6F894DEBF0FBECDBF6B017C0140E052
:100E500050E0BA01CE0101960E94D204B701A6016A
:100E6000CE0101960E94D204CE0101960E94B404E4
:100E7000672B682B692B19F00E946106F5CF289625
:100E80000FB6F894DEBF0FBECDBFDF91CF91FF90BC
:100E9000EF90DF90CF900895DC0115962C91159777
:100EA00022FF29C015962C91287259F49093740250
:100EB000809373026FE672E008960E94D80581E085
:100EC00008950FB6F89426B515B23091AD010FBE56
:100ED00010FE03C02F3F09F0315011240024330FBE
:100EE000330F220F001C220F001C3029FC01378712
:100EF000268780E0089515962C91159721FFF9CF4C
:100F0000ED91FC910480F581E02D0995F2CF0895D3
:100F1000DC011696ED91FC91309709F00994089543
:100F2000DC011696ED91FC91309709F00994089533
:100F3000CF93DF93EC0160E00E946F029E01FE01FF
:100F4000E250FF4F8491FE01EE5EFE4FD491F90115
:100F5000E05DFE4FC491CC2379F081110E94EC0139
:100F6000EC2FF0E0EE0FFF1FE651FF4FA591B4917B
:100F7000EC91ED2381E009F480E08170DF91CF9165
:100F80000895CF93C82F60E00E946F02C064C093A1
:100F90007C0080917A00806480937A0080917A004E
:100FA00086FDFCCF8091780090917900CF910895D3
:100FB000CF93DF93C82FD62F61E00E946F026D2F71
:100FC0008C2FDF91CF910C94150286E090E00E9467
:100FD0009807882349F060E088E090E00E94D807F5
:100FE00080E895E20C94A00285E00E94430261E053
:100FF00088E090E00C94D807CF9382E090E00E94C4
:1010000098078823A9F08091A601811111C0C1E041
:10101000C093A50160E088E090E00E94D807C093EB
:10102000A6011092B8011092B701CF910C94E50778
:101030008091A5018823D1F08091A4018823A9F390
:101040002091B9013091BA018091A2019091A30140
:10105000281739072CF490E080E00E94A002E5CF29
:101060001092A50185E00E944302DFCF82E090E06C
:101070000E949807882319F00E94E507D6CF1092A6
:10108000A601D3CF81E090E00C94C107089581E0E0
:1010900090E00E94C1078A3F9105ACF482E090E0A5
:1010A0000E94980781110DC060E088E090E00E94E6
:1010B000D8078091A4018823F1F190E080E00C949E
:1010C000A0020C94E50781E090E00E94C107843FF4
:1010D0009140A4F483E090E09093A3018093A20157
:1010E00086E696E6AEE0B1E48093B3019093B40156
:1010F000A093B501B093B6010C94FC0781E090E099
:101100000E94C1078E3E92405CF482E090E0909392
:10111000A3018093A20180E090E0A0E0B1E4E4CFDD
:1011200081E090E09093A3018093A2018DEC9CEC70
:10113000ACEEB0E4D9CF08958091A5018823F9F0F1
:1011400086E090E00E949807882381F08091A101B9
:1011500081110CC08091B9019091BA0101969093D0
:10116000BA018093B90181E08093A10186E090E00B
:101170000E94980781110AC01092A101089581E090
:101180008093A1011092BA011092B9010895CF92F3
:10119000DF92EF92FF928091BB01811181C082E0CA
:1011A00090E00E949807811110C08091A5018111E3
:1011B0000CC08091B1019091B201863291050CF082
:1011C00069C081E08093A00162C08091A001882362
:1011D00071F182E090E00E94C10724E630E0DC017A
:1011E0000E9483122FEF33E040E050E00E94940E03
:1011F00069012091B1013091B201032E000C440B22
:10120000550B2552310941095109A4E6B0E00E946D
:10121000B30E2FE830E040E050E00E94940EC21A76
:10122000D30AD0929F01C0929E011092A00182E049
:1012300090E00E94C1072FE830E0DC010E94831299
:101240002FEF33E040E050E00E94940E2B5D3F4FC3
:101250004F4F5F4F3093B2012093B10180919E01B7
:1012600090919F01181619066CF081E08093A401FB
:101270006AE070E080E090E0FF90EF90DF90CF9028
:101280000C941707019790939F0180939E011092F1
:10129000A401EECF01979093B2018093B10191CF59
:1012A000FF90EF90DF90CF900895CF93DF93FC01F4
:1012B00020853185232B09F491C0EC01858181FFC4
:1012C0005AC0F8946FE672E0CB010E94D8058D8178
:1012D00082FF3DC0198A188A1B8A1A8A85E08D838D
:1012E0008D8183FD2CC0E881F9810684F785E02D8E
:1012F000CE0109958C859D85009709F10FB6F8946C
:1013000066B515B27091AD010FBE10FE03C06F3F00
:1013100009F0715011240024770F770F660F001C1D
:10132000660F001C70292E853F85621B730B6817A2
:1013300079070CF4D5CFCE010E944606D1CF80911B
:1013400075028111CDCFCE010E940A06C9CF8091CE
:101350006F0290917002EDB7FEB7A885B9859D0127
:10136000215031093987288720812C9331978E1796
:101370009F0799F77894CE010E9474052091760218
:10138000309177023D872C8780917A0290917B0281
:10139000820F931F90937B0280937A020FB6F8948A
:1013A00086B515B29091AD010FBE10FE03C08F3F00
:1013B00009F0915011240024990F990F880F001CF7
:1013C000880F001C90299F878E8740E050E0BA016B
:1013D000CE014496DF91CF910C94D204DF91CF914E
:1013E00008958F929F92AF92BF92CF92DF92EF9229
:1013F000FF928091A401882309F45EC08091A50129
:10140000882379F08091B7019091B801019690936B
:10141000B8018093B7016AE070E080E090E00E943C
:1014200017076091B7017091B801072E000C880B67
:10143000990B0E94630F6B017C016091B301709165
:10144000B4018091B5019091B60120E030E040EC0C
:1014500050E40E94F40F4B015C0181E090E00E9497
:10146000C107BC01990F880B990B0E94630F9B0168
:10147000AC01C501B4010E94EF0E20E030E040E273
:1014800051E40E94EF0E9B01AC01C701B6010E941E
:10149000EF0F87FD11C01092A5011092B8011092B4
:1014A000B70185E0FF90EF90DF90CF90BF90AF90B5
:1014B0009F908F900C944302FF90EF90DF90CF901D
:1014C000BF90AF909F908F9008951F920F920FB68C
:1014D0000F9211242F933F934F935F936F937F93BA
:1014E0008F939F93AF93BF93EF93FF938091C2012C
:1014F0009091C301A091C401B091C501892B8A2BA1
:101500008B2BD1F19091BD01E091BE01F091BF0113
:101510008081892780838091C2019091C301A0912D
:10152000C401B091C501181619061A061B069CF4D1
:101530008091C2019091C301A091C401B091C501F5
:101540000197A109B1098093C2019093C301A093AF
:10155000C401B093C501FF91EF91BF91AF919F91ED
:101560008F917F916F915F914F913F912F910F904C
:101570000FBE0F901F901895809100010E944302AA
:10158000EACF1F920F920FB60F9211242F933F9321
:101590004F935F936F937F938F939F93AF93BF937B
:1015A000EF93FF9382ED91E00E941C01FF91EF9178
:1015B000BF91AF919F918F917F916F915F914F916B
:1015C0003F912F910F900FBE0F901F9018951F9273
:1015D0000F920FB60F9211242F938F939F93EF9337
:1015E000FF93E091E201F091E3018081E091E80155
:1015F000F091E90182FD1BC090818091EB018F5F2A
:101600008F732091EC01821741F0E091EB01F0E043
:10161000EE52FE4F958F8093EB01FF91EF919F91DA
:101620008F912F910F900FBE0F901F901895808172
:10163000F4CF1F920F920FB60F9211242F933F9366
:101640008F939F93AF93BF938091A9019091AA012B
:10165000A091AB01B091AC013091A80123E0230F20
:101660002D3758F50196A11DB11D2093A801809337
:10167000A9019093AA01A093AB01B093AC01809112
:10168000AD019091AE01A091AF01B091B001019672
:10169000A11DB11D8093AD019093AE01A093AF0148
:1016A000B093B001BF91AF919F918F913F912F91D6
:1016B0000F900FBE0F901F90189526E8230F0296EB
:1016C000A11DB11DD2CF1F920F920FB60F92112400
:1016D0002F933F934F935F936F937F938F939F933A
:1016E000AF93BF93CF93DF93EF93FF938091A701C5
:1016F000C091A402D0E087FF24C010928500109210
:1017000084008091A7018F5F8093A7018091A7013A
:10171000082E000C990B8C179D0724F48091A701CB
:101720008C30C4F1809184009091850004968034BF
:101730009C4908F47AC080918400909185000496B9
:1017400076C08091A701082E000C990B8C179D077D
:10175000C4F6E091A7018E2FEE0F990BFC01EE0F5E
:10176000FF1FE80FF91FE058FD4F808186FFC9CFAA
:10177000E091A7018E2FEE0F990BFC01EE0FFF1FDA
:10178000E80FF91FE058FD4F808160E08F730E94E1
:101790001502B7CF2091840030918500E091A70118
:1017A0008E2FEE0F990BFC01EE0FFF1FE80FF91FB4
:1017B000E058FD4F81819281820F931F90938900A1
:1017C00080938800E091A7018E2FEE0F990BFC010A
:1017D000EE0FFF1FE80FF91FE058FD4F808186FFD5
:1017E00011C0E091A7018E2FEE0F990BFC01EE0FB7
:1017F000FF1FE80FF91FE058FD4F808161E08F73F4
:101800000E941502FF91EF91DF91CF91BF91AF91AF
:101810009F918F917F916F915F914F913F912F9108
:101820000F900FBE0F901F90189580E49CE9909345
:101830008900809388008FEF8093A701E3CFFC019C
:101840008091D0019091D10193838283F093D10153
:10185000E093D00181E0848385830895CF93109233
:10186000D5011092D40188EE93E0A0E0B0E080931F
:10187000D6019093D701A093D801B093D9018BE200
:1018800091E09093D3018093D20185EC90E0909306
:10189000DF018093DE0184EC90E09093E10180937E
:1018A000E00180EC90E09093E3018093E20181EC11
:1018B00090E09093E5018093E40182EC90E09093B6
:1018C000E7018093E60186EC90E09093E901809334
:1018D000E8011092EB011092EC011092ED011092D0
:1018E000EE0180E991E090937702809376029093E5
:1018F00079028093780210927B0210927A02109201
:101900007D0210927C0210927F0210927E02109251
:10191000720210927102109274021092730281E0AE
:10192000809375028091A4028C3008F05BC091E036
:10193000980F9093A4028093A50290E0FC01EE0F13
:10194000FF1FE80FF91FE058FD4F88EB9BE09283E3
:10195000818360E075E086E096E00E94EF048DE808
:1019600091E09093070680930606C2E0C0930B06B1
:101970006AE674E08AEE95E00E94EF0489E791E060
:101980009093EB058093EA05C093EF0564ED73E057
:101990008EEC95E00E94EF0485E691E09093CF05F0
:1019A0008093CE05C093D3056EE373E082EB95E0A0
:1019B0000E94EF0481E591E09093B3058093B20516
:1019C000C093B70568EA72E086E995E00E94EF04EB
:1019D0008DE391E09093970580939605C0939B05C6
:1019E000CF9108958FEF8093A502B3CF789484B5FB
:1019F000826084BD84B5816084BD85B5826085BD0B
:101A000085B5816085BD80916E00816080936E0098
:101A1000109281008091810082608093810080918A
:101A2000810081608093810080918000816080933B
:101A300080008091B10084608093B1008091B000FB
:101A400081608093B00080917A00846080937A00F6
:101A500080917A00826080937A0080917A00816020
:101A600080937A0080917A00806880937A00109247
:101A7000C1008091A5028C3008F051C061E083E084
:101A80000E946F028091A502282F30E0F901EE0F2D
:101A9000FF1FE20FF31FE058FD4F9081907C936091
:101AA00090831092A6021092A7022CE0622F0E944F
:101AB0007712829FB001112430E020E0AB01420F89
:101AC000531FFA01EE0FFF1FE40FF51FE058FD4F03
:101AD000908196FD16C02F5F3F4F2C30310571F776
:101AE00081110FC01092800082E0809381001092DB
:101AF000850010928400B19A80916F00826080937B
:101B00006F00E091A5028E2F90E0FC01EE0FFF1F09
:101B1000E80FF91FE058FD4F808180648083809139
:101B200078029091790290937B0280937A0280915F
:101B3000D0019091D10190937202809371028091B3
:101B4000710290917202009771F0DC01ED91FC91AD
:101B50000480F581E02D0995E0917102F091720207
:101B600082819381E8CF1092750281E08093BB015E
:101B700061E088E090E00E94D80761E087E090E0B3
:101B80000E94D8071092BA011092B9011092B801C0
:101B90001092B70180E090E0A0E2B1E48093B3013D
:101BA0009093B401A093B501B093B60185E290E0A3
:101BB0009093B2018093B1012091A60288E890E051
:101BC000821B910927FD9395EC01CC0FDD1FCC0FF3
:101BD000DD1F6E010D2E000CEE08FF088091A7029C
:101BE00028E532E0281B310987FD3395220F331F8A
:101BF000220F331F032E000C440B550B2C193D09EB
:101C00004E095F09A5E2B0E00E94B30E24EB30E07C
:101C100040E050E00E94940EC20ED31EE41EF51E5A
:101C2000E091A502EC30B0F4CE01CC15DD050CF44A
:101C3000C6010297880F991F4FB7F8942E2F30E0F6
:101C4000F901EE0FFF1FE20FF31FE058FD4F9283E3
:101C500081834FBF0E948F046B017C0186E7882E31
:101C600086E1982EA12CB12C0E9461060E948F045F
:101C70006C197D098E099F09683E734081059105A5
:101C800098F3B1E08B1A9108A108B10828EEC20EB2
:101C900023E0D21EE11CF11C81149104A104B104C3
:101CA00029F71092BB01C0E0D0E068EE73E080E05D
:101CB00090E00E9417070E9461062097B1F30E94EE
:101CC000AB01882391F30E940000EFCFCF93DF9305
:101CD000C7E1D1E0D0939705C093960586E995E0DA
:101CE0000E94A805D093B305C093B20582EB95E09E
:101CF0000E94A805D093CF05C093CE058EEC95E049
:101D00000E94A805D093EB05C093EA058AEE95E002
:101D10000E94A805D0930706C093060686E096E0C9
:101D2000DF91CF910C94A805052E97FB1EF400942B
:101D30000E94AB0E57FD07D00E94BE0E07FC03D0D9
:101D40004EF40C94AB0E50954095309521953F4F35
:101D50004F4F5F4F089590958095709561957F4F97
:101D60008F4F9F4F08950E94E00EA59F900DB49F46
:101D7000900DA49F800D911D11240895A1E21A2EAB
:101D8000AA1BBB1BFD010DC0AA1FBB1FEE1FFF1F1F
:101D9000A217B307E407F50720F0A21BB30BE40B6F
:101DA000F50B661F771F881F991F1A9469F76095B6
:101DB0007095809590959B01AC01BD01CF01089570
:101DC000A29FB001B39FC001A39F700D811D11247C
:101DD000911DB29F700D811D1124911D08950E94C7
:101DE000030F0C94B50F0E94AE0F58F00E94A70F7E
:101DF00040F029F45F3F29F00C949E0F51110C9490
:101E0000E90F0C94A40F0E94C60F68F39923B1F355
:101E1000552391F3951B550BBB27AA276217730710
:101E2000840738F09F5F5F4F220F331F441FAA1FA4
:101E3000A9F335D00E2E3AF0E0E832D09150504060
:101E4000E695001CCAF72BD0FE2F29D0660F771F0E
:101E5000881FBB1F261737074807AB07B0E809F0F4
:101E6000BB0B802DBF01FF2793585F4F3AF09E3F79
:101E7000510578F00C949E0F0C94E90F5F3FE4F34A
:101E8000983ED4F3869577956795B795F7959F5FBC
:101E9000C9F7880F911D9695879597F90895E1E008
:101EA000660F771F881FBB1F621773078407BA0767
:101EB00020F0621B730B840BBA0BEE1F88F7E095C2
:101EC0000895E89409C097FB3EF49095809570952D
:101ED00061957F4F8F4F9F4F9923A9F0F92F96E976
:101EE000BB279395F695879577956795B795F111EB
:101EF000F8CFFAF4BB0F11F460FF1BC06F5F7F4F88
:101F00008F4F9F4F16C0882311F096E911C0772399
:101F100021F09EE8872F762F05C0662371F096E8A2
:101F2000862F70E060E02AF09A95660F771F881F71
:101F3000DAF7880F9695879597F9089597F99F672F
:101F400080E870E060E008959FEF80EC0895002441
:101F50000A941616170618060906089500240A940E
:101F600012161306140605060895092E0394000C94
:101F700011F4882352F0BB0F40F4BF2B11F460FF23
:101F800004C06F5F7F4F8F4F9F4F089557FD90584C
:101F9000440F551F59F05F3F71F04795880F97FB2D
:101FA000991F61F09F3F79F08795089512161306E7
:101FB0001406551FF2CF4695F1DF08C01616170616
:101FC0001806991FF1CF869571056105089408954B
:101FD000E894BB2766277727CB0197F908950E94DD
:101FE0007E1008F48FEF0895FA01EE0FFF1F309670
:101FF00021053105A1F16115710561F48038BFE358
:102000009B0749F168949038810561F08038BFEFF3
:102010009B0741F099234AF5FF3FE1053105210572
:1020200019F1E8940894E795D901AA2329F4AB2F74
:10203000BE2FF85FD0F310C0FF5F70F4A695E0F7F5
:10204000F73950F019F0FF3A38F49F779F930DD08D
:102050000F9007FC9058089546F00C94A40F60E090
:1020600070E080E89FE308954FE79F775F934F9379
:102070003F932F930E9413112F913F914F915F91A6
:102080000E948F110C944C1029F416F00C949E0FA2
:102090000C94E80F0C94A40F0E94CE0FA8F396386E
:1020A000A0F707F80F92E8942BE33AEA48EB5FE7D2
:1020B0000E94A5110F920F920F924DB75EB70F922B
:1020C0000E945B11E8E6F0E00E94A2104F915F9140
:1020D000EF91FF91E595EE1FFF1F49F0FE57E06875
:1020E0004427EE0F441FFA95E1F74195550B0E94E6
:1020F000D5100F9007FE0C94C9100895990F000891
:10210000550FAA0BE0E8FEEF16161706E807F907C9
:10211000C0F012161306E407F50798F0621B730B64
:10212000840B950B39F40A2661F0232B242B252BE5
:1021300021F408950A2609F4A140A6958FEF811D88
:10214000811D0895DF93CF931F930F93FF92EF921A
:10215000DF927B018C01689406C0DA2EEF010E94A9
:10216000A211FE01E894A5912591359145915591D3
:10217000A6F3EF010E941412FE019701A801DA9460
:1021800069F7DF90EF90FF900F911F91CF91DF9152
:1021900008959B01AC0160E070E080E89FE30C943F
:1021A000EF0E0C949E0F0C9469120E94CE0FD8F380
:1021B0009923C9F3940F511DA3F39150504094F00B
:1021C00059F0882332F0660F771F881F91505040D6
:1021D000C1F79E3F51052CF7880F911D9695879565
:1021E00097F908955F3FACF0983E9CF0BB27869529
:1021F00077956795B79508F4B1609395C1F7BB0FD4
:1022000058F711F460FFE8CF6F5F7F4F8F4F9F4FFC
:10221000E3CF0C94E90F16F00C9469120C94A40F00
:1022200068940C949E0F0E94CE0FA8F39923C1F3DB
:10223000AEF3DF93CF931F930F93FF92C92FDD2748
:1022400088232AF02197660F771F881FDAF720E08E
:1022500030E040E85FEB9FE3883920F0803E38F0C3
:1022600021968F770E94FD11E0E9F0E004C00E9402
:10227000FD11EDEBF0E00E94A2108B01BE01EC011C
:10228000FB2E6F5771097595771F880B990B0E946C
:10229000630F28E132E741E35FE30E94A211AF2D13
:1022A0009801AE01FF900F911F91CF91DF910E9495
:1022B00014120C94B50FFA01DC01AA0FBB1F9B018D
:1022C000AC01BF5728F4222733274427507820C079
:1022D000B75190F4AB2F0024469537952795011CF4
:1022E000A395D2F3002071F0220F331F441FB39542
:1022F000DAF30ED00C94FC1161307105A0E88A0766
:10230000B94630F49B01AC0166277727882790787F
:10231000309621F0208331834283538308950E94B5
:10232000A2110C94B50F0E94A70F38F00E94AE0FB7
:1023300020F0952311F00C949E0F0C94A40F1124FF
:102340000C94E90F0E94C60F70F3959FC1F3950F8F
:1023500050E0551F629FF001729FBB27F00DB11D29
:10236000639FAA27F00DB11DAA1F649F6627B00DB9
:10237000A11D661F829F2227B00DA11D621F739FA2
:10238000B00DA11D621F839FA00D611D221F749FB0
:102390003327A00D611D231F849F600D211D822FF7
:1023A000762F6A2F11249F5750409AF0F1F088231E
:1023B0004AF0EE0FFF1FBB1F661F771F881F91504B
:1023C0005040A9F79E3F510580F00C949E0F0C944D
:1023D000E90F5F3FE4F3983ED4F3869577956795D0
:1023E000B795F795E7959F5FC1F7FE2B880F911D75
:1023F0009695879597F908955058BB27AA270E946C
:1024000014120C94B50F0E94A70F38F00E94AE0F63
:1024100020F039F49F3F19F426F40C94A40F0EF425
:10242000E095E7FB0C949E0FE92F0E94C60F58F32E
:10243000BA17620773078407950720F079F4A6F5A9
:102440000C94E80F0EF4E0950B2EBA2FA02D0B0183
:10245000B90190010C01CA01A0011124FF27591BE9
:1024600099F0593F50F4503E68F11A16F040A22FEF
:10247000232F342F4427585FF3CF46953795279560
:10248000A795F0405395C9F77EF41F16BA0B620B5F
:10249000730B840BBAF09150A1F0FF0FBB1F661FA6
:1024A000771F881FC2F70EC0BA0F621F731F841FE9
:1024B00048F4879577956795B795F7959E3F08F00F
:1024C000B0CF9395880F08F09927EE0F97958795D1
:1024D00008959F3F31F0915020F487957795679547
:1024E000B795880F911D9695879597F90895991B33
:1024F00079E004C0991F961708F0961B881F7A95FB
:10250000C9F7809508950E94E00EB7FF0895821BD9
:10251000930B0895EE0FFF1F0590F491E02D0994A1
:1025200010E0C4EAD0E004C0FE010E948A122196A5
:0A253000C53AD107C9F7F894FFCFB0
:10253A00FF00000000870790077405500548053A18
:10254A00054005000000008707870755094C074822
:10255A00053A0540058807000000003E01BF01DF7B
:10256A00008B011001EE00020100000000460887FE
:10257A000755094C0748053A05400542080000007E
:10258A00004608870755094C0748053A054005479C
:10259A0008000000004608870755094C0748053A15
:1025AA000540059C08000000004608870755094CAD
:1025BA000748053A054005C7080000000046088795
:0E25CA000755094C0748053A054005F1090080
:00000001FF
